:020000040800F2
:10000000982200209D01000831210008C51A00082F
:100010000D210008790200080D29000800000000E9
:1000200000000000000000000000000005010008C2
:100030007B0200080000000049010008E9230008D5
:10004000B7010008B7010008B7010008B7010008B0
:10005000B7010008B7010008B7010008B7010008A0
:10006000B7010008B7010008B7010008B701000890
:10007000B7010008B7010008B7010008B701000880
:10008000B7010008B7010008B7010008B701000870
:10009000B7010008B7010008B7010008B701000860
:1000A000B7010008B7010008B7010008B701000850
:1000B000D5240008B7010008E1240008B7010008B2
:1000C000B7010008B7010008B7010008B701000830
:1000D000B701000801290008B7010008B7010008AE
:1000E000B7010008B7010008B7010008DFF810D019
:1000F00000F08AF8004800474D290008AFF300805F
:1001000098220020224B19680868B0E8F00F80F3AD
:100110000988BFF36F8F4FF0000080F311884EF015
:100120000D0E70470000000006480068006880F36C
:10013000088862B661B6BFF34F8FBFF36F8F00DFE1
:1001400000BF00BF08ED00E0EFF30980BFF36F8F41
:100150000F4B1A6820E9F00F106008B54FF05000FF
:1001600080F31188BFF34F8FBFF36F8F03F0B2FAA4
:100170004FF0000080F31188BDE808401968086856
:10018000B0E8F00F80F30988BFF36F8F704700BFAE
:100190001C000020EFF305807047000006488047F0
:1001A00006480047FEE7FEE7FEE7FEE7FEE7FEE75C
:1001B000FEE7FEE7FEE7FEE78D240008ED000008FD
:1001C00040EA01039B0703D009E008C9121F08C0D9
:1001D000042AFAD203E011F8013B00F8013B521E59
:1001E000F9D27047D2B201E000F8012B491EFBD2D0
:1001F00070470022F6E710B513460A460446194632
:10020000FFF7F0FF204610BD064C074D06E0E06802
:1002100040F0010394E8070098471034AC42F6D34D
:10022000FFF768FF084900082849000870B5044630
:1002300000688168C943C9071CD1816821F00101A8
:10024000816000F0A9FA05460FE000BF00F0A4FAB3
:10025000401B022809D9A06A40F01000A062E06AA1
:1002600040F00100E062012070BD20688068C0435A
:10027000C007EBD0002070BDFEE7704772B6FEE706
:10028000F8B50024009490F824202546012A12D0C5
:10029000012280F824204A681F23072A0DD206680D
:1002A000776B521E02EB820293409F430B68934090
:1002B0001F43776319E00220F8BD06680D2A0AD2B1
:1002C000376BD21F02EB820293409F430B6893402F
:1002D0001F43376309E0F76A0D3A02EB820293404D
:1002E0009F430B6893401F43F7620A680723066821
:1002F0000A2A0AD3F7680A3A02EB420293409F4364
:100300008B6893401F43F76008E0376902EB4202B5
:1003100093409F438B6893401F4337610A68102ABC
:1003200001D0112A20D1124B02689A4217D193684A
:100330001B0219D4936843F40003936009681029E1
:1003400012D10C490C4A0968B1FBF2F101EB8101B1
:10035000490000E0491E00910029FBD104E0816AB8
:1003600041F020018162012480F824502046F8BD2C
:10037000002401401800002040420F002DE9F04108
:100380004FF0000704003D467ED0A06A002628B941
:10039000E66284F82460204600F07EF82046FFF7ED
:1003A00045FFA16AC90600D420B1A06A40F0100040
:1003B000A06269E0A16A21F4885141F00201A162C2
:1003C0006268E169237B0A4347EA43010A43A16863
:1003D0004FF48077B94209D0012907D05FF00001BE
:1003E00094F814C0BCF1010F02D00AE03946F7E7D7
:1003F000F3B1A36A43F02003A362E36A43F001036D
:10040000E3622368D3F804C02CF4694C4CEA010C75
:10041000C3F804C021688B68DFF870C003EA0C03DE
:1004200013438B60A168B9420BD0012909D00CE0BD
:10043000DFF85CC0A3690CEB43330B4343F400616A
:10044000DFE7218A0D05A5F580152168CB6A23F425
:1004500070032B43CB62216889680E4B194091428F
:1004600008D1E662A16A21F0020141F00101A16216
:10047000BDE8F081A06A20F0020040F01000A06208
:10048000E06A40F00100E0620120F1E7FDF7E1FFE2
:1004900000E0FFFFFE0E1FFF00B585B000210091B8
:1004A00001910291039100680E49884218D10E48CB
:1004B000816941F400718161816901F400710491E5
:1004C000816941F0040181618069694600F004009E
:1004D00004900920009003200190044800F066F881
:1004E00005B000BD0024014000100240000801409A
:1004F00010B590F821100024022903D00421816353
:1005000001243DE001680A6822F00E020A600168D9
:100510000A6822F001020A601A4A0168914201D178
:10052000012121E0174A1432914201D110211BE030
:10053000144A2832914201D1891515E0114A3C3202
:10054000914201D189140FE00E4A5032914202D1FA
:100550004FF4803108E00B4A6432914202D14FF4EB
:10056000801101E04FF08071064A083A5160012184
:1005700080F82110002180F82010416B01B18847DC
:10058000204610BD0800024070B5044600F004F992
:100590000546601C02D004480078044400F0FCF8D2
:1005A000401BA042FAD370BD0C0000202DE9F84F8B
:1005B000DFF8B891002409F1040A0AF1040B23467C
:1005C0000F270BF1040EC9E00125A5402A40AA42DD
:1005D0007DD1674ED1F804C0ACEB0608B44532D0EB
:1005E00014DCBCF1030F3AD009DCBCF1000F2AD0B7
:1005F000BCF1010F1CD0BCF1020F31D11DE0BCF1E8
:10060000110F17D0BCF1120F2AD119E0B8F5881FCD
:1006100019D006DCB8F5803F15D0B8F5801F1FD182
:1006200011E0B8F5001F0ED0B8F5041F18D10AE08C
:10063000CB6815E0CB681B1D12E0CB6808330FE0D8
:10064000CB680C330CE08B682BB1012B4FF0080307
:1006500003D0456104E0042302E0056100E00023CB
:10066000FF2A01D8064601E000F104064FEA84059E
:1006700001D9A5F12005D6F8008007FA05FC28EA83
:100680000C0803FA05F548EA0508C6F800804D682D
:10069000ED0062D5374DAE6946F00106AE61AD6939
:1006A00024F0030605F001050095334D06EB050C1B
:1006B000DCF80850A607360F07FA06F825EA080501
:1006C000DFF8B880404503D14FF0000817E044E060
:1006D000DFF8AC80404502D14FF001080FE0DFF8B1
:1006E000A480404502D14FF0020808E0DFF898806E
:1006F000404502D14FF0030801E04FF0040808FA2A
:1007000006F848EA0508CCF808804D68D9F800607A
:10071000ED034D4601D5164300E096432E604D682B
:10072000DAF80060AD03554601D5164300E0964364
:100730002E604D68DBF80060ED025D4601D5164382
:1007400000E096432E604D68DEF80060AD0275460D
:1007500001D5164300E096432E60641C0D682A46BE
:10076000E5407FF431AFBDE8F88F000000040140A0
:10077000000011100010024000000140000801407C
:10078000000C014000100140001401400AB1016159
:1007900070470904FBE700000148806870470000CB
:1007A0000C00002070B504001BD094F83D0000251B
:1007B00020B984F83C50204600F0DCF9242084F86D
:1007C0003D002068016821F00101016000F0F6FBA6
:1007D0004D4A6168914201D84C4900E04C49884239
:1007E00001D2012070BD4B492368B0FBF1F15E6876
:1007F00026F03F060E435E606368934206D94FF4CD
:10080000967359434FF47A73B1FBF3F12368491C93
:100810001E6A26F03F06314319626168914210D882
:100820004900401EB0FBF1F2521CC2F30B02042A35
:1008300001D2042022E0B0FBF1F0401CC0F30B0019
:100840001CE0A368F3B301EBC10202EB0116421EE8
:10085000B2FBF6F2521C42F48042120549D093B327
:1008600001EBC10202EB0111401EB0FBF1F0401C94
:10087000C0F30B0040F4804040F400402168CA6996
:100880004CF6FF739A431043C861D4E9070108434B
:1008900021680A6822F0C00210430860D4E903010D
:1008A00001432068826848F2FF339A431143816014
:1008B000D4E9050108432168CA6822F0FF02104309
:1008C000C86001E00EE016E02068016841F0010117
:1008D00001602564202084F83D00256384F83E50A3
:1008E000002070BD01EB4106421EB2FBF6F2521C25
:1008F000B3E70120C2E701EB4101401EB0FBF1F07C
:10090000401CC0F30B00B7E7A086010080841E00E6
:1009100000093D0040420F002DE9F84F1F46904668
:100920008A460446DDF82890FFF736FF054694F81E
:100930003D0020287FD119230122404920460095FF
:1009400001F08CF9002876D194F83C00012872D08F
:10095000012084F83C0020680168C90703D10168C0
:1009600041F0010101602068016821F4006101602B
:10097000212084F83D00102084F83E0000262664E3
:10098000C4F824806785608D20852D48E0622B4661
:100990004A465146204601F0ADF890B920684169B9
:1009A0008069009036E02A464946204601F0D5F994
:1009B00050B1206C042804D12068016841F4007112
:1009C00001600120BDE8F88F606A21680078086145
:1009D000606A401C6062618D491E6185218D491EDF
:1009E00089B2218522685369DB435B070BD451B17F
:1009F00000781061606A401C6062608D401E6085F6
:100A0000208D401E20852A464946204601F000F9E7
:100A10000028CED1208D0028C5D154F83D0B0168A7
:100A200041F400710160202004F81E09E677667722
:100A30000020C7E7FFE70220C4E700000200100023
:100A40000000FFFF2DE9FF4F83B09A46DDE91197C3
:100A500093460446DDF84080FFF79EFE054694F875
:100A60003D0020287FD119230122404920460095CE
:100A700001F0F4F8002876D194F83C00012872D0F7
:100A8000012084F83C0020680168C90703D101688F
:100A900041F0010101602068016821F400610160FA
:100AA000212084F83D00402084F83E000026266482
:100AB000C4F82480A4F82A90608D20852C48E06238
:100AC000CDE9007553465A462046049901F056F880
:100AD00070B930E02A463946204601F03EF958B157
:100AE000206C042804D12068016841F40071016081
:100AF000012007B0BDE8F08F606A216800780861C6
:100B0000606A401C6062218D491E89B22185628D18
:100B1000521E628522685369DB435B070BD469B1BF
:100B200000781061606A401C6062208D401E208544
:100B3000608D401E6085208D0028CBD12A46394625
:100B4000204601F065F80028CAD154F83D0B016831
:100B500041F400710160202004F81E09E6776677F1
:100B60000020C6E7FFE70220C3E7000002001000F4
:100B70000000FFFF10B586B00021009101910291A5
:100B8000039100680F4988421AD10F4CA06940F0C8
:100B90000800A061A069694600F008000490C02028
:100BA000009012200190032003900848FFF7FEFCFC
:100BB000E06940F40010E061E06900F40010049086
:100BC00006B010BD0054004000100240000C01406F
:100BD0000248816802781144816070470C0000204F
:100BE000074810B5016841F010010160032000F0D2
:100BF000A7F80F2000F006F800F050F8002010BD14
:100C00000020024030B505461F4887B0C16941F059
:100C10000401C161C06906A900F00400009001A8A8
:100C200000F0ACF90498B0B100F0C8F940001749E1
:100C3000174AB0FBF1F11748491E0260416040F2CB
:100C4000E7320021C0E903218160816100F0E9FB06
:100C5000040003D015E000F0B1F9E8E70D4800F01A
:100C600023FC04000DD11E2000F03CF8102D07D20B
:100C7000002229461E2000F043F80748056000E0E6
:100C8000012407B0204630BD0010024040420F0052
:100C900000080040E4010020100000200F4808B5C3
:100CA000816941F001018161816901F001010091D7
:100CB000C16941F08051C161C069002200F08050DB
:100CC00000900F21901E00F01BF80548416821F0AC
:100CD000E06141F00071416008BD00000010024079
:100CE00000000140002809DB00F01F0201219140B3
:100CF0004009800000F1E020C0F8001170470000BA
:100D0000F0B40E4B1B680C46C3F30223C3F1070576
:100D1000042D00D90425191D072901D2002300E064
:100D2000DB1E012606FA05F1491E214099409E402E
:100D3000761E16403143F0BC01F0E9BD0CED00E039
:100D4000064900F0070208684FF6FF03184040EA22
:100D50000220034A10430860704700000CED00E0D9
:100D60000000FA052DE9F84305460078354CC00728
:100D700054D0E0690026C00008D4E06940F08050FB
:100D8000E061E069012600F0805000902E48016883
:100D9000C90512D40168804641F480710160FFF7F3
:100DA000FBFC074605E000BFFFF7F6FCC01B64280C
:100DB00023D8D8F80000C005F6D5206A10F440709A
:100DC00021D0A98801F4407181421CD0206A1F49BA
:100DD000012220F440700A6000220A602062C007ED
:100DE00011D0FFF7D9FC074641F2883808E000BF70
:100DF000FFF7D2FCC11B414502D90320BDE8F883AF
:100E0000206A8007F4D5206A696820F4407008439E
:100E100020621EB1E06920F08050E06128788007F0
:100E200005D56068A96820F44040084360602878D0
:100E3000C00605D56068E96820F48000084360605A
:100E40000020DBE7001002400070004040044242F6
:100E50002DE9F0470F46050061D0434E306800F0A1
:100E60000700B84209D2306820F0070038433060EC
:100E7000306800F00700B84251D128683B4C810728
:100E800012D5400703D5606840F4E06060602878C0
:100E9000000703D5606840F4605060606068A9682E
:100EA00020F0F000084360602878C00728D0686808
:100EB000012810D02168022810D0890700292EDAD5
:100EC000616821F0030101436160FFF765FC804622
:100ED00041F288390DE021688903EFE78901EDE7E8
:100EE000FFF75AFCA0EB0801494502D90320BDE8F1
:100EF000F0876068696800F00C00B0EB810FEFD1FB
:100F0000306800F00700B8420BD9306820F00700C5
:100F100038433060306800F00700B84201D001204B
:100F2000E5E72878400705D56068E96820F4E060C7
:100F3000084360602878000706D56068296920F4B6
:100F4000605040EAC100606000F058F86168084AEB
:100F5000C1F30311515CC8400649086006480068A7
:100F6000FFF750FE0020C2E70020024000100240C0
:100F7000E440000818000020100000200F2202604A
:100F80000C4A536803F003034360536803F0F00313
:100F90008360536803F4E063C36052684FF4E06316
:100FA00003EAD20202610448006800F0070008600A
:100FB000704700000010024000200240044805492C
:100FC00000684968044AC1F30221515CC840704777
:100FD0001800002000100240F440000804480549B1
:100FE00000684968044AC1F3C221515CC840704797
:100FF0001800002000100240F440000812A185B043
:101000000FC98DE80F0014A0144A006804905168BD
:10101000134801F00C03042B10D0082B0ED1C1F3A0
:101020008343C9031DF803000AD5516804AAC1F31C
:101030004041515C0A4A5043B0FBF1F005B07047A3
:1010400008494843FAE700000203040506070809B7
:101050000A0B0C0D0E0F10100102000000100240D0
:1010600000127A0000093D002DE9F84F040070D00D
:101070002078C04DC00749D06868C0F381000128BE
:1010800007D06868C0F38100022809D16868C003EE
:1010900006D52868800339D560680028E7D035E098
:1010A0006068B0F5803F0BD010B1B0F5A02F11D023
:1010B000286820F480302860286820F4802002E02E
:1010C000286840F480302860606890B1FFF764FBC6
:1010D00006460AE0286840F480202860F0E700BF58
:1010E000FFF75AFB801B642873D828688003F7D564
:1010F0000CE0FFF751FB064605E000BFFFF74CFB95
:10110000801B6428F0D828688003F7D420789A4E92
:1011100080074FF001094FF0000839D5686810F0DA
:101120000C0F07D06868C0F38100022809D16868F5
:10113000C00306D42868800714D52069012808D187
:1011400010E02069B0B1C6F80090FFF725FB074614
:1011500005E00AE1FFF720FBC01B0228C4D828687D
:101160008007F7D52868616920F0F80040EAC100DF
:1011700028600DE0C6F80080FFF70EFB074604E08C
:10118000FFF70AFBC01B022823D828688007F7D482
:10119000207800072CD57948A169D9B1C0F8009012
:1011A000FFF7FAFA074604E0FFF7F6FAC01B022839
:1011B0000FD8686A8007F7D571484FF4FA51006874
:1011C000B0FBF1F0009000BF0098411E0091FAD2F0
:1011D0000EE080E0C0F80080FFF7DEFA074604E08A
:1011E000FFF7DAFAC01B022875D8686A8007F7D4BF
:1011F0002078400760D5E8690027C00008D4E86976
:1012000040F08050E861E869012700F080500090CC
:101210005C480168C90513D40168834641F48071B4
:101220000160FFF7B9FA824606E000BFFFF7B4FAA3
:10123000A0EB0A0064284ED8DBF80000C005F5D505
:10124000E06801280AD008B1052813D0286A20F0E8
:1012500001002862286A20F0040002E0286A40F0B9
:1012600001002862E06841F2883B98B1FFF794FAE8
:1012700082460BE0286A40F004002862EEE700BFD7
:10128000FFF78AFAA0EB0A0159455AD8286A800765
:10129000F6D50CE0FFF780FA824605E0FFF77CFA0E
:1012A000A0EB0A0159454CD8286A8007F6D41FB133
:1012B000E86920F08050E861E06988B36968C1F3AB
:1012C0008101022944D00228C6F8608004D0FFF7CB
:1012D00063FA044638E034E0FFF75EFA074604E0BC
:1012E000FFF75AFAC01B02282BD828688001F7D4D0
:1012F000206AB0F5803F05D16868A16820F400300D
:1013000008436860D4E908010843696821F474114E
:1013100008436860C6F86090FFF73EFA044606E0AE
:1013200025E000BFFFF738FA001B022809D828681B
:101330008001F7D51BE000BFFFF72EFA001B022843
:1013400002D90320BDE8F88F28688001F4D40EE0AC
:101350000128F7D06868226A00F48031914204D1F4
:10136000616A00F47010884201D00120EAE7002091
:10137000E8E70000001002400000424280044242C0
:1013800018000020007000407047704710B590F8BA
:101390003C20012A22D0012280F83C20CA688C68B7
:1013A00022F4407222434C6822F4806222430C688B
:1013B00022F4006222430C6922F4805222434C69D9
:1013C00022F400522243C969002322F480420A43D6
:1013D00001684A6480F83C30002010BD022010BD36
:1013E00070B590F83C20012A19D0012400F83C4F38
:1013F0000222427050F83C3C5A689D6822F0700608
:101400000A684968324325F0800529435A6050F83C
:101410003C2C9160447000210170084670BD022090
:1014200070BD10B5040003D094F83D0010B107E082
:10143000012010BD002084F83C00204600F00CF88C
:10144000022084F83D00211D206801F04FF80120A2
:1014500084F83D00002010BD08B5114A016811480C
:10146000914208D1816941F400618161806900F491
:101470000060009008BDB1F1804FFBD1C16941F01F
:101480000101C161C069002200F001000090052146
:101490001C20FFF735FCBDE808401C20FFF722BCEC
:1014A000002C0140001002400168CA6842F00102AD
:1014B000CA600068816801F00701062903D001684D
:1014C00041F0010101600020704770B5044690F8BA
:1014D0003C00012817D0012584F83C50022084F8F4
:1014E0003D002068826822F0770222F47F42826009
:1014F0000868502830D00DDC20284DD005DC98B38A
:1015000010283BD148E0022070BD302844D040284C
:1015100034D139E0602828D0702806D0B0F5805F3B
:101520002CD0B0F5005F29D10AE0CB68D1E90121C8
:10153000206801F01EF82068816841F0770109E019
:10154000CB68D1E90121206801F013F82068816897
:1015500041F48041816011E0CA684968206801F067
:10156000BDF85021206807E016E0CA684968206885
:1015700001F0C5F86021206801F005F884F83D50BD
:10158000002084F83C0070BDCA684968206801F0FA
:10159000A5F840212068EFE7226801461046EBE7F6
:1015A000704770B50446006801694FF00005C943F3
:1015B000890715D4C168C943890711D4E91E01619F
:1015C00001202077206880698007204602D0FFF73D
:1015D000E7FF04E000F0CCF8204600F04EF9257754
:1015E00020680169C943490717D4C168C94349073D
:1015F00013D46FF004010161022020772068806914
:1016000010F4407F204602D0FFF7CAFF04E000F04C
:10161000AFF8204600F031F9257720680169C94309
:10162000090716D4C168C943090712D46FF008012D
:101630000161042020772068C0698007204602D01D
:10164000FFF7AEFF04E000F093F8204600F015F934
:10165000257720680169C943C90617D4C168C94301
:10166000C90613D46FF010010161082020772068AB
:10167000C06910F4407F204602D0FFF791FF04E0DC
:1016800000F076F8204600F0F8F825772068016928
:10169000C943C90708D1C168C943C90704D1891E14
:1016A0000161204600F006F920680169C943090676
:1016B00009D4C168C943090605D46FF080010161EE
:1016C0002046FFF761FE20680169C943490609D435
:1016D000C168C943490605D46FF040010161204645
:1016E00000F0F2F820680169C94389060BD4C1688B
:1016F000C943890607D46FF0200101612046BDE887
:101700007040FFF742BE70BD10B586B00021009159
:10171000019102910391134C03681349022213486B
:10172000A3420CD18B6943F004038B618969039256
:1017300001F0040104918115CDE900120DE0B3F12F
:10174000804F0DD18B6943F004038B61896900924E
:1017500001F004010192CDE903216946FEF726FF5D
:1017600006B010BD002C01400010024000080140EE
:10177000704770B5044690F83C000D4601280DD026
:10178000012684F83C60022084F83D0042B1042A1E
:1017900018D0082A2AD00C2A4DD139E0022070BD79
:1017A000206800F0F9FE2068816941F0080181613C
:1017B0002068816921F004018161206881692A69BA
:1017C000114311E0206800F00FFF2068816941F4A7
:1017D000006181612068816921F4806181612068F4
:1017E00081692A6941EA0221816124E0206800F0D0
:1017F00027FF2068C16941F00801C1612068C16903
:1018000021F00401C1612068C1692A69114311E016
:10181000206800F041FF2068C16941F40061C161A6
:101820002068C16921F48061C1612068C1692A69A9
:1018300041EA0221C16184F83D60002084F83C0047
:1018400070BD10B5040003D094F83D0010B107E05E
:10185000012010BD002084F83C00204600F00CF868
:10186000022084F83D00211D206800F03FFE012089
:1018700084F83D00002010BD7047704710B5044645
:101880000068012200F068FE09492068884203D1FF
:10189000416C41F4004141642068816801F0070116
:1018A000062903D0016841F001010160002010BD4C
:1018B000002C014000680349884201D1FFF788B934
:1018C00070470000000800407047704770B502681C
:1018D00004461068D168536910F00F0F50D003F020
:1018E000010501F4907635435DD0C20705D0CA05E5
:1018F00003D5E26B42F00102E263420705D5DA0745
:1019000003D0E26B42F00202E263820705D5DA07F8
:1019100003D0E26B42F00402E263020705D5DA0766
:1019200003D0E26B42F00802E263E26B002A33D09C
:10193000800604D5880602D5204600F008FF2068FE
:101940004069E16BC0F38010090700D428B320463A
:1019500000F0EFFE2068416949061AD5416921F07F
:1019600040014161606BA0B11B494163606BFEF7B0
:10197000BFFD002810D0606B416BBDE87040084788
:10198000830610D58B060ED52046BDE8704000F0CA
:10199000DEBE2046FFF799FF70BD2046FFF795FF9A
:1019A0000020E06370BD030606D50B0604D5204673
:1019B000BDE8704000F072BF4006F3D54806F1D58F
:1019C000D168204621F04001D160202184F83910EF
:1019D00000F077F870BD00002327000870B5040000
:1019E00004D094F83900002510B106E0012070BD44
:1019F00084F83850204600F023F8242084F8390079
:101A00002068C16821F40051C160204600F0EAFE60
:101A10002068016921F4904101612068416921F049
:101A20002A0141612068C16841F40051C160E56349
:101A3000202084F8390084F83A00002070BD0000AE
:101A400030B585B00024009401940294039400689A
:101A5000184988422CD11848816941F4804181613C
:101A6000816901F480410491816941F0040181613F
:101A70008069124D00F0040004904FF40070009053
:101A8000022001900320039069462846FEF78EFD50
:101A90002815CDE90004694628460294FEF786FD24
:101AA000002205212520FFF72BF92520FFF71AF941
:101AB00005B030BD00380140001002400008014070
:101AC00070477047FEE701684A69D24352050FD458
:101AD0006FF480624A61002140F8301F2022427377
:101AE0008173026942F004020261017301207047B0
:101AF00000207047F8B50446C06A1E460D461746DA
:101B0000082807D0012805D010F5803F02D0206BAF
:101B1000122804D12068016841F4807101601346E5
:101B200000224FF001112046009600F097F808BB04
:101B30002069B0F5804F0ED00620216800EAD5104C
:101B400040F0F000086133463A460B49204600F069
:101B5000B9F878B902E005F0FE0000E0E8B22168CB
:101B60000861054933463A46891F204600F0AAF825
:101B7000002800D00120F8BD080001002DE9F8433D
:101B8000044600680D46DDE9089701689846164648
:101B900041F4807101604B4600224FF00111204654
:101BA000009700F05BF8E0B9216805F0FE000861DD
:101BB0003B464A461549204600F084F888B920681B
:101BC0004169806900903A464946204600F0C5F8D0
:101BD00050B1206C042804D12068016841F40071E0
:101BE00001600120BDE8F883F5B2B8F1010F09D01A
:101BF0002168300A08613A464946204600F0ADF8AF
:101C00000028E6D1206805610020EBE70200010012
:101C100070B516460D4604460DE02046FFF753FF0B
:101C200008B1012070BD681C05D0FEF7B5FD801B12
:101C3000A84207D835B120684069C0434007ECD4BA
:101C4000002070BD002044F8300F20216173A07384
:101C5000216941F0200121612073E2E72DE9F0477D
:101C60001E4690460D460446C1F30747DDF8209016
:101C700008E0701C06D0FEF78FFDA0EB0900B04213
:101C80000FD876B12068012F18D0806925EA0000AE
:101C90000004000C14D000214145EAD00020BDE82A
:101CA000F087002044F8300F20216173A073216970
:101CB00041F02001216120730120F0E74069E5E750
:101CC0000121E9E72DE9F0479A4691460E46044680
:101CD00000254FF02008C1F3074725E02068406940
:101CE000C043400514D42068016841F400710160CC
:101CF00021686FF480604861256384F83D8084F832
:101D00003E50206C40F00400206484F83C501FE0FA
:101D1000B9F1FF3F08D0FEF73FFDA0EB0A014945AE
:101D20000CD8B9F1000F09D02068012F13D08069B9
:101D300026EA00000004000C0BD0CFE744F8305F27
:101D400084F80D80A573206940F020002061257380
:101D50000120BDE8F0874069EAE770B516460D46F8
:101D600004460DE02046FFF7AEFE08B1012070BD2D
:101D7000681C05D0FEF710FD801BA84207D835B1BE
:101D800020684069C0430006ECD4002070BD0020EC
:101D900044F8300F20216173A073216941F02001C4
:101DA00021612073E2E700F0C4B900F0D7B900F078
:101DB0001FBA00003EB5002410480094019402941C
:101DC0000D498460016004730475012505614FF4B9
:101DD00060214460C161FEF7D1FA08B1FEF74EFA06
:101DE000CDE90045694605480294FEF749FA002806
:101DF00001D0FEF743FA3EBD00240140A0000020C0
:101E00001CB5FFF7D2FFFFF7CEFF094A00210948B2
:101E100000F00AFE084C00210B46A0601920CDE915
:101E20000001802205A1084801F03CFF60601CBD54
:101E3000C0400008D92300080000002043726561FB
:101E400074655461736B00000F2100082DE9F041A7
:101E500086B000243148009401940294039481696F
:101E600041F010018161816901F0100104918169E3
:101E700041F020018161816901F0200104918169B3
:101E800041F004018161816901F0040104918169DB
:101E900041F0080181618069214F00F008004FF492
:101EA00000550490002229463846FEF76FFCDFF803
:101EB0007480002250214046FEF768FC00950226FF
:101EC00001250396CDE9015469463846FEF76EFBBD
:101ED0001020CDE90005CDE9024669464046FEF7EF
:101EE00065FB2020CDE90004694640460294FEF7D8
:101EF0005DFB4020009001AA112082E86100694644
:101F00004046FEF753FB009669460748CDE9014578
:101F1000FEF74CFB06B0BDE8F08100000010024067
:101F20000010014000080140000C01400D4810B5B0
:101F30000B4901600C49416000214FF480428160EF
:101F4000C0E9031241618161C1610162FEF72AFCAF
:101F5000002803D0BDE81040FEF790B910BD000086
:101F600000540040D0000020A086010010B596B0BB
:101F700000240F9410941194129413941C2108A817
:101F80001494FEF736F920216846FEF732F92A4804
:101F9000284901604721C0E9011440F2E731C0E956
:101FA00003148021C0E90541FFF73BFA08B1FEF7B1
:101FB00065F94FF480500F900FA91F48FFF785FA7D
:101FC00008B1FEF75BF91C48FFF73BFC08B1FEF7D0
:101FD00055F9139413A918481494FFF701FA08B19E
:101FE000FEF74CF96020089040F2F310CDE90904A7
:101FF0000B940C940D94002208A90F480E94FFF73F
:10200000B8FB08B1FEF73AF900944FF40050CDE95F
:102010000440029401940394694607480794FFF72B
:10202000B5F908B1FEF72AF90348FFF76DFB16B0C2
:1020300010BD0000002C01402401002010B58EB01E
:1020400000240794089409940A940B941C21684670
:102050000C94FEF7CEF81E484FF08041016040F22C
:10206000CF21C0E901146321C0E903148461FFF7A3
:10207000D8F908B1FEF702F94FF48050079007A98C
:102080001348FFF722FA08B1FEF7F8F81048FFF7F7
:10209000D8FB08B1FEF7F2F80B940BA90C480C948E
:1020A000FFF79EF908B1FEF7E9F86020CDE90004DA
:1020B000022002900422694604940548FFF759FB68
:1020C00008B1FEF7DBF80248FFF71EFB0EB010BDAB
:1020D000640100200C4810B50A4901604FF4E13159
:1020E0004160002181600C22C160C0E9041281615D
:1020F000C161FFF773FC002803D0BDE81040FEF774
:10210000BDB810BD00380140A4010020FEE700F07A
:1021100045F94FF47A7400F047F901F00DFB0246DF
:1021200006210020FFF743FE204601F01FFAF2E7E8
:10213000FEE710B5A0B0002480216846FEF759F8EC
:102140000021204600F0E6F88021684600F016F9EC
:10215000641CE4B2082CF3D320B010BD10B50224E7
:10216000202000F0F7F8204600F0F4F81F48047033
:102170003F24A82000F0EEF8204600F0EBF8002401
:10218000D32000F0E7F8204600F0E4F8402000F00B
:10219000E1F8A12000F0DEF8C82000F0DBF8002113
:1021A000084600F0A1F87F24812000F0D3F82046F3
:1021B00000F0D0F8A42000F0CDF8A62000F0CAF876
:1021C000D52000F0C7F8802000F0C4F88D2000F082
:1021D000C1F8142000F0BEF80021012000F084F8BE
:1021E000BDE81040AF2000F0B5B80000940000201A
:1021F000F0B589B00024074620466D4604AE002A9B
:1022000008DA4FF02D038DF800304FF00104C2F1D1
:10221000000214E006D14FF030008DF800004FF0BE
:1022200001041AE04FF00A0C92FBFCF30CFB1323A1
:1022300092FBFCF203F13003335400F10100002A59
:10224000F0D108E006EB0002A0F1010012F8012C29
:102250002A5504F101040028F4D14FF0000028555C
:102260002A46384600F003F809B02046F0BD2DE9B3
:10227000F04117460E46044600250BE03146204645
:1022800000F00EF8641CE4B20F2C02D90024B61C36
:10229000F6B26D1C7A5D002AF0D12846BDE8F081C7
:1022A00070B51646C206150E0C46072918D80F2819
:1022B00016D82946204600F02DF80A48082100EBE0
:1022C0000610064600F05AF8641CE0B2294600F0F9
:1022D00021F806F10800BDE87040082100F04EB872
:1022E00070BD0000FC40000870B50C46050001D030
:1022F000012D0ED10CB1012C0BD1DA2000F02AF8FF
:10230000280100EB4410BDE87040801CC0B200F012
:1023100021B870BD70B50E4D0C462978022905D143
:10232000072803D8B030C0B200F014F8287802288B
:102330000CD17F2C0AD804F00F0000F00BF810200D
:1023400000EB1410BDE8704000F004B870BD000050
:10235000940000201CB500218DF804108DF80500B4
:102360004FF4FA7000900448022301AA78214068D3
:10237000FEF7D2FA1CBD0000940000200EB54FF409
:10238000FA728DE807000448012340227821406852
:10239000FEF758FB0EBD0000940000200421014808
:1023A000FFF76CBA6401002070B5094C0020094D9C
:1023B0002070C0B22968C0F1640088630A20FEF76B
:1023C000E3F82078401CC0B220706428F1D970BDB9
:1023D0009C00002064010020FFF7E7FCFFF7E3FC0E
:1023E000142000F0CBFAFBE710B5502080F31188E1
:1023F000BFF34F8FBFF36F8F01F0C0FC18B10449DA
:102400004FF080500860002080F3118810BD00005C
:1024100004ED00E030B593B028216846FDF7E9FEF1
:1024200014210AA8FDF7E5FE002401210F94109461
:102430000804CDE90010119412940294022504912D
:10244000CDE907504FF4E01009906846FEF70CFE06
:1024500008B172B6FEE70F20CDE90A054FF480609F
:10246000CDE90C4002210AA80E94FEF7F1FC08B158
:1024700072B6FEE70FA80F951194FEF773FC0028C3
:1024800001D072B6FEE713B030BD00000D48016800
:1024900041F00101016041680B4A1140416001684F
:1024A0000A4A11400160016821F4802101604168FD
:1024B00021F4FE0141604FF41F0181600449C00313
:1024C00008607047001002400000FFF8FFFFF6FEB2
:1024D00008ED00E00148FFF764B800006401002047
:1024E0000148FFF75EB80000E4010020F0B5026883
:1024F000164B174C174D4FF08047984205D0B84205
:1025000003D0A04201D0A84203D122F070064A684D
:102510003243984205D0B84203D0A04201D0A8422D
:1025200003D122F44074CA6822434C6922F080022D
:10253000224302608A68C2620A688262984201D1BC
:102540000969016301214161F0BD0000002C0140D7
:10255000000400400008004010B501F01F030121F5
:10256000046A99408C430462016A9A4011430162F3
:1025700010BD10B5846842EA032224F47F440A4364
:102580002243826010BD826822F070020A4342F04A
:10259000070181607047000030B5026A22F0010235
:1025A0000262026A4368846924F073050C682C4354
:1025B00022F002058A682A430A4DA8420BD122F074
:1025C0000805CA6823F440732A434D6922F00402C7
:1025D0001D438B692B4343608461496841630262F8
:1025E00030BD0000002C014030B5026A22F010021C
:1025F0000262026A436884690D6824F4E64444EA8E
:1026000005248D6822F0200242EA05120B4DA842F3
:102610000ED1CD6822F0800242EA05124D6923F402
:10262000406343EA85038D6922F0400243EA850353
:102630004360846149688163026230BD002C0140BF
:1026400030B5026A22F480720262036A4268C46989
:1026500023F4007324F073050C682C438D6843EA5F
:1026600005230C4DA8420ED1CD6823F4006343EA44
:1026700005234D6922F4405242EA05128D6923F484
:10268000806342EA05124260C4614968C163036223
:1026900030BD0000002C014030B5026A22F48052A7
:1026A0000262046A4268C3690D6823F4E64343EAA0
:1026B00005238D6824F4005444EA0534064DA842ED
:1026C00004D14D6922F4804242EA85124260C3611E
:1026D00049680164046230BD002C014010B5036AF2
:1026E000046A24F001040462846924F0F00444EADA
:1026F000021423F00A020A438461026210BD10B57D
:10270000036A23F0100303628369046A23F47043AD
:1027100043EA023224F0A00343EA0111826101621C
:1027200010BD10B5406A0021C185C184FFF7CDF806
:1027300010BD0168CA6822F49072CA6001684A69D3
:1027400022F001024A61202180F83A10704710B54A
:1027500090F83A10222901D0022010BD8168B1F50D
:10276000805F11D00169002901681FD0496801F01C
:102770007F03816A4A1C82620B70C18D491E090465
:10278000090CC18518D02BE00269816A002A026811
:10279000526805D0D2B20A80816A491C8162ECE796
:1027A000C2F308020A80816A891CF7E74A68816AD5
:1027B0004B1C83620A70E0E70168CA6822F02002BD
:1027C000CA600168CA6822F48072CA6001684A69F6
:1027D00022F001024A61202180F83A10FFF770F9D7
:1027E000002010BD2DE9F041044600680169E2684F
:1027F00021F44051114301612169A06808436169D6
:1028000008432168CA6841F20C639A430243CA60D4
:1028100020684169A26921F44071114341611E4958
:10282000206864253226884202D1FEF7D7FB01E0FA
:10283000FEF7C4FB00EBC00101EB001160686FF014
:1028400018078000B1FBF0F2B2FBF5F2B1FBF0F338
:102850007A4303EB8202B1FBF0F306EB0212B2FB08
:10286000F5F2B3FBF5F302F0F00202EB0312B1FB59
:10287000F0F3B1FBF0F0B0FBF5F0784303EB800030
:1028800006EB0010B0FBF5F0216800F00F001044DB
:102890008860BDE8F08100000038014090F83910F0
:1028A000212901D0022070478168B1F5805F016A5B
:1028B0000BD04A1C0262026809785160C18C491E23
:1028C0000904090CC1840ED017E009880268C1F31D
:1028D0000801516001690029016A02D0491C0162A6
:1028E000ECE7891CFBE70168CA6822F08002CA6035
:1028F0000068C16841F04001C160002070470000DD
:102900000148FEF7E3BF0000A4010020FEE709072D
:10291000090E002804DB00F1E02080F80014704765
:1029200000F00F0000F1E02080F8141D704702E075
:1029300008C8121F08C1002AFAD17047704700204A
:1029400001E001C1121F002AFBD17047FEF748F9D0
:10295000FFF760FDFFF77AFAFFF7E8FAFFF72AFAC8
:10296000FFF7B8FBFFF76AFBFFF700FB00F020F86A
:10297000FFF746FA00F038F8FEE7000010B5EFF375
:10298000058149B9EFF3108131B908490968022975
:1029900005D1EFF3118111B16FF0050403E00024BC
:1029A00008B100F0E3FD204610BD00006C000020DF
:1029B000EFF3058058B9EFF3108040B90949086872
:1029C000022801D030B109E0EFF3118030B16FF08F
:1029D0000500704701200860002070474FF0FF306D
:1029E000704700006C00002010B5EFF3058060B95F
:1029F000EFF3108048B90B490868022802D001287B
:102A000006D00BE0EFF3118040B16FF0050010BD70
:102A10000220086000F012FE002010BD4FF0FF30D1
:102A200010BD00006C000020F0B585B04FEA010336
:102A30004FF00004EFF305810394A1BBEFF3108185
:102A400089BB21490968022902D1EFF3118151BBE9
:102A500048B3802618218DF8104004AD42B31768A2
:102A600007B13D4697691FB139467F1E382F02D204
:102A70001779FF0702D0002005B0F0BD576907B1F4
:102A8000BE08D2F808C0BCF1000F0DD0D4685C2C91
:102A900018D312693AB137B18DE80610324629468B
:102AA00001F02DF903900DE0D7685FB912694AB9BA
:102AB00003AACDE90012B2B2294601F0F3F80128C9
:102AC00000D003940398D7E76C0000202DE9F04173
:102AD000134C0F46054666692068001D00F016FC81
:102AE000681C07D137B12168BDE8F0410D48091DC8
:102AF00000F05CBC20683544B5424560216805D2D1
:102B0000A068BDE8F041091D00F038BC6068091DEF
:102B100000F034FC206B854200D22563BDE8F081D3
:102B20001C000020140700202DE9F041054600F0AC
:102B300049FC2D4C2069401C206120682B4F10B1AE
:102B4000E06930B32BE025602069012827D10026F9
:102B500006EB860007EB800000F002FC761C382EA6
:102B6000F6D3234800F0FCFB2148143000F0F8FBBA
:102B70001F48283000F0F4FB1D483C3000F0F0FB0B
:102B80001B48503000F0ECFB194860601430A06026
:102B900005E02068E96AC06A884200D82560E06ADA
:102BA000401CE0626864E86AA169884200D9A061BB
:102BB00000EB800007EB8000291D00F0F7FB00F020
:102BC00021FCE06900280CD02068E96AC06A8842CC
:102BD00007D208494FF080500860BFF34F8FBFF312
:102BE0006F8FBDE8F08100001C000020640200200F
:102BF000C406002004ED00E038B500F0E3FB104C03
:102C0000A068C8B90F4800F0ABFB0E48143000F0C4
:102C1000A7FB0C482060143060600A4B002028336A
:102C2000009003F1500210210A2000F0DFFDA060A7
:102C300010B105A100F064FCBDE8384000F0E2BB33
:102C40005800002028070020546D72510000000039
:102C500030B4026C0B46002A0BD0C1681144C1602D
:102C60004468A14201D30168C16030BC1846FDF739
:102C7000A7BA30BC70472DE9F041856B1746044672
:102C80000026026C82B1C7B1E068FDF799FAE168ED
:102C9000206C091AE1602268914202D26168081A28
:102CA000E060022F16D017E02068A8B9606801F034
:102CB000C9F80646002060600EE0A068FDF780FAC3
:102CC000216CA0680844A0606168884204D3206831
:102CD000A06001E005B16D1E6D1CA5633046BDE826
:102CE000F08110B5044690F8590058B101280CD075
:102CF00002280FD0502080F31188BFF34F8FBFF30D
:102D00006F8FFEE7206B00F091FB2046BDE810407E
:102D100000F08CBB10BD000010484FF47A614207F0
:102D200006D0C01D0D4920F00700411AC1F57A6197
:102D30000B4A00230144C2E900030839103A21F08C
:102D4000070111604B600B600B1AC0E90013936020
:102D50004FF000405360D06070470000F80E002034
:102D600080000020144E154CA6F29C474FF080586E
:102D7000DFF84C9012E000BF00F024FBF068C5685B
:102D8000281D00F0C3FA2069401E2061E068401E43
:102D9000E06000F037FB2846FFF7A3FFE06800285B
:102DA000EAD138680128F9D9C9F80080BFF34F8FFC
:102DB000BFF36F8FF2E70000000700201C00002027
:102DC00004ED00E070B51D46049C51B1C4F800202C
:102DD000C4E90F010121204600F03CFD84F84C506D
:102DE00070BD2460F4E72DE9F0470E46DDE9098463
:102DF0001746824691009946089DA522206BFDF753
:102E0000F1F96FF00301206B01EB8701084420F01A
:102E10000707780707D0502080F31188BFF34F8F42
:102E2000BFF36F8FFEE72218315C82F83410315CFB
:102E300011B1401C1028F6D3002684F84360382DC9
:102E400000D33725E562C4E91356201D00F093FA3C
:102E500004F1180000F08FFA2461C5F138006462B3
:102E6000A061666584F858604A465146384600F0CD
:102E70003BFA2060B8F1000F01D0C8F80040BDE86F
:102E8000F087000030B5114900E011460A6882421F
:102E9000FBD34B685C18844203D1406818444860F7
:102EA000084643681C18944209D1084C103C246819
:102EB000A24209D052681A4442600A68126802604D
:102EC000814200D0086030BD0460F9E78000002036
:102ED00070B5002441600B4D0061914206D8D11AB3
:102EE0008269914206D2011D686807E09A4203D2C6
:102EF000994201D3012403E0011D286800F03EFA45
:102F0000204670BD5800002010B5044600F05AFA63
:102F1000A06B28B15FF0000400F074FA204610BDE9
:102F20000124F9E730B589B0304D55E00498002808
:102F300006DADDE90601059A9047049800284BDB84
:102F4000069C606910B1201D00F0E0F902A800F0B5
:102F5000B9F8024604980A283ED2DFE800F00505D9
:102F6000053D263705053D260598A1690346014420
:102F70002046FFF7ADFF00B3616A20468847E0694D
:102F8000012829D1002000900598A169002342184A
:102F90001946204601F060F878B9502080F3118876
:102FA000BFF34F8FBFF36F8FFEE70598A06128B185
:102FB000811813462046FFF78BFF0DE0502080F369
:102FC0001188BFF34F8FBFF36F8FFEE794F82C008B
:102FD00010B9204600F02AFA002204A9A86800F0DF
:102FE0008BFD0028A2D109B030BD000058000020A0
:102FF0002DE9FC410F46054600F064FB01A800F0F6
:1030000061F80446019818B100F094FFBDE8FC8116
:10301000224EAFB170680068A8B30027291B3A465A
:10302000B06800F081FA00F085FF0028EED11C495D
:103030004FF080500860BFF34F8FBFF36F8FE5E70D
:10304000A542EBD800F076FF30682746C068C46818
:10305000201D00F05BF9E069012810D1A0692B4622
:1030600041193A462046FFF733FF40B1002003469E
:10307000014600902A46204600F0EEFF20B1616A2A
:1030800020468847C2E707E0502080F31188BFF34D
:103090004F8FBFF36F8FFEE70127BFE75800002077
:1030A00004ED00E006484168096829B14168C96833
:1030B000C9684968016370474FF0FF31FAE70000C3
:1030C0001C00002070B5054600F052FE064E044676
:1030D0003069844203D200F009F8012000E00020AA
:1030E00028602046346170BD58000020F8B5194DA5
:1030F0001FE0C068C4680668201D00F007F9616A17
:1031000020468847E069012813D1A0693044B042C5
:1031100006D924616060211D286800F02FF908E0BD
:1031200000200346014600903246204600F094FFFE
:1031300038B1286801680029DBD16968C5E9001049
:10314000F8BD502080F31188BFF34F8FBFF36F8F0E
:10315000FEE700005800002008484068401C4FF07F
:10316000500080F3118804D0BFF34F8FBFF36F8FEF
:10317000FEE7BFF34F8FBFF36F8FFEE7880000209D
:10318000074C2068016841B1C0680021D0F80000F8
:10319000FFF72EFFFFF7C6FEF3E701210020F7E758
:1031A000580000202DE9F041044600F00BF994F995
:1031B000455004F1240609E0606A48B1304600F049
:1031C00081FE08B100F000FA6D1E6DB2002DF3DC37
:1031D0004FF0FF3684F8456000F014F900F0F2F883
:1031E00094F9445004F1100709E0206948B13846C9
:1031F00000F068FE08B100F0E7F96D1E6DB2002D19
:10320000F3DC84F84460BDE8F04100F0FBB8000056
:103210002DE9F0410546002700F054FA314E3068A0
:1032200008B9FFF779FDF06805424BD1C5B3083501
:1032300068070ED005F00700C0F1080005446807D4
:1032400007D0502080F31188BFF34F8FBFF36F8FEB
:10325000FEE72DB37068854234D82248103001460D
:103260000C6801E020460C466168A94202D2216840
:103270000029F7D131688C4224D0076821680160A9
:1032800060680837411B10290FD96019420708D020
:10329000502080F31188BFF34F8FBFF36F8FFEE78D
:1032A00010E041606560FFF7EDFD61687068401AED
:1032B0007060B268904200D2B060F06801430020B4
:1032C000C4E9000100F036FE780707D0502080F3F3
:1032D0001188BFF34F8FBFF36F8FFEE73846BDE80D
:1032E000F08100007000002010B5031F4FF08074C3
:1032F0001C601B1F21F001011960191F024B0B609C
:10330000143940380A6010BD59310008D0E9013243
:1033100001699A60D0E901235A604A68824201D16A
:1033200082684A60002202610868401E08600868DE
:1033300070470000034B036003F15C0008608020CD
:103340001060704740080020044B036003F15C00EC
:1033500008604FF480701060704700009C0A0020E5
:1033600000F108014FF0FF32C0E90112C1600161B4
:1033700000210160704700210161704730B50B6882
:103380005A1C02D000F1080202E0026904E0224661
:10339000546825689D42FAD953684B6099608A60E9
:1033A000516008610168491C016030BD42684A6093
:1033B00093688B6093685960916008610168491C4B
:1033C00001607047502080F31188BFF34F8FBFF327
:1033D0006F8F0A494868401C486001280CD1084892
:1033E000006810F0FF0F07D0502080F31188BFF362
:1033F0004F8FBFF36F8FFEE77047000088000020FB
:1034000004ED00E00849486828B1401E486001D139
:1034100080F311887047502080F31188BFF34F8FDD
:10342000BFF36F8FFEE700008800002070B5002812
:1034300027D0144DA0F108046168E868014207D163
:10344000502080F31188BFF34F8FBFF36F8FFEE7DB
:1034500022683AB1502080F31188BFF34F8FBFF339
:103460006F8FFEE78143616000F02CF96068696846
:10347000084468602046FFF705FDBDE8704000F095
:1034800059BD70BD700000204FF0E02000210161A7
:10349000816105494FF47A720968B1FBF2F1491E66
:1034A00041610721016170471800002010B5FCF749
:1034B00071FE114910280ED300F1E02090F8F003BE
:1034C0000A78904207D2502080F31188BFF34F8FC3
:1034D000BFF36F8FFEE709480068896800F4E06079
:1034E000884207D9502080F31188BFF34F8FBFF374
:1034F0006F8FFEE710BD0000880000200CED00E09B
:1035000010B5084B002200BF53F832401CB1521CCA
:10351000082AF9D310BD43F8321003EBC20148600A
:1035200010BD00002402002070B515460E4604466A
:10353000FFF748FF94F944100020491C01D184F89A
:10354000440094F94510491C01D184F84500FFF767
:1035500059FFA06B28B92A46314604F1240000F037
:1035600051F82046BDE87040FFF71CBE10B50200C0
:1035700014D00F48806B38B1502080F31188BFF30E
:103580004F8FBFF36F8FFEE700F09CF800211046CD
:10359000FFF79CFA00F0CEFC002807D105494FF058
:1035A00080500860BFF34F8FBFF36F8F10BD0000D6
:1035B0001C00002004ED00E002498A6A02604969AB
:1035C000416070471C00002001490120486270479B
:1035D0001C00002010B50C4650B10949096818318B
:1035E000FFF7CCFE2046BDE810400121FFF76EBA80
:1035F000502080F31188BFF34F8FBFF36F8FFEE72A
:103600001C00002070B514460D4668B10A490968CF
:103610001831FFF7CBFE0CB14FF0FF35214628469D
:10362000BDE87040FFF752BA502080F31188BFF315
:103630004F8FBFF36F8FFEE71C00002030B587B0BF
:103640000024039405AA04A903A80494FFF772FEBA
:10365000DDE903010094CDE90110002315A117480D
:10366000059A00F04CFB164D002868631FD000F04F
:10367000C3FC012809D0401C19D1502080F31188C7
:10368000BFF34F8FBFF36F8FFEE7502080F3118899
:10369000BFF34F8FBFF36F8F4FF0FF3028630120D0
:1036A000E8616C6107B0BDE8304000F04BB807B08E
:1036B00030BD000049444C4500000000652D000865
:1036C0001C0000200248816B491C81637047000088
:1036D0001C000020164810B5816B11B10121416218
:1036E00010BD002141628169124A01E0B9B1491E51
:1036F00001EB810352F82330002BF7D001EB81035B
:1037000002EB830202F1080453685B685360A34232
:1037100001D15B685360DA680260816110BD50209E
:1037200080F31188BFF34F8FBFF36F8FFEE7000068
:103730001C0000206402002001484068704700001F
:10374000700000201CB5264908780190FF20087001
:1037500008788DF800009DF800009DF8002000F02A
:10376000F000904207D0502080F31188BFF34F8FB4
:10377000BFF36F8FFEE79DF800001A4B00F050007A
:1037800018700720986005E09DF8002052008DF821
:103790000020401E9DF800201206F5D498600328F2
:1037A00007D0502080F31188BFF34F8FBFF36F8F86
:1037B000FEE74FF440709860019808700A4801686D
:1037C00041F470010160016841F070410160FFF750
:1037D0005BFE00205860FCF7A7FC00201CBD000029
:1037E00000E400E08800002020ED00E038B5049DF2
:1037F00018B153B1CAB181B120E0502080F31188D3
:10380000BFF34F8FBFF36F8FFEE7502080F3118817
:10381000BFF34F8FBFF36F8FFEE7502080F3118807
:10382000BFF34F8FBFF36F8FFEE739B1502080F3A6
:103830001188BFF34F8FBFF36F8FFEE750241C46F4
:10384000012384F846302B460094FFF7BBFA20464C
:1038500038BD000070B50D46040025D0FFF7B2FD5D
:10386000D4E90F20216802FB001161600021A163EF
:103870002168A1600A46D4E90F01401E00FB012126
:10388000E16021464FF0FF3001F8440F487004F129
:1038900010008DB1FFF764FD04F12400FFF760FD17
:1038A000FFF7B0FD012070BD502080F31188BFF3F9
:1038B0004F8FBFF36F8FFEE721690029F0D000F032
:1038C00001FB0028ECD004494FF080500860BFF3A2
:1038D0004F8FBFF36F8FE3E704ED00E02DE9FF4763
:1038E00082B01D468A464FF00008040003D0BAF1AA
:1038F000000F08D011E0502080F31188BFF34F8FE4
:10390000BFF36F8FFEE7206C38B1502080F3118831
:10391000BFF34F8FBFF36F8FFEE7022D0AD1E06B2D
:10392000012807D0502080F31188BFF34F8FBFF3D9
:103930006F8FFEE700F00EFA3F4F4FF000094FF097
:10394000805648B9049838B1502080F31188BFF3ED
:103950004F8FBFF36F8FFEE7FFF734FDA06BE16B76
:10396000884207D3022D05D00498D0B1B8F1000FDA
:103970001AD01EE02A4651462046FFF77CF9616ABC
:1039800019B104F1240000F09DFA20B13E60BFF3AC
:103990004F8FBFF36F8FFFF735FD012006B0BDE8F5
:1039A000F087FFF72FFD22E06846FFF705FE4FF096
:1039B0000108FFF727FDFFF785FEFFF703FD94F9E8
:1039C0004400401C01D184F8449094F94500401C07
:1039D00001D184F84590FFF715FD04A9684600F071
:1039E00027F930B12046FFF7DDFB00F0A3FA0020F5
:1039F000D4E7FFF7E7FCA06BE16B884213D1FFF738
:103A000001FD04F110000499FFF7E4FD2046FFF7E3
:103A1000C9FB00F08FFA00289ED13E60BFF34F8FA4
:103A2000BFF36F8F98E7FFF7EDFC2046FFF7BAFB77
:103A300000F080FA90E7000004ED00E02DE9F04787
:103A40001F4690468946040003D0B9F1000F08D004
:103A500011E0502080F31188BFF34F8FBFF36F8FB9
:103A6000FEE7206C38B1502080F31188BFF34F8FF0
:103A7000BFF36F8FFEE7022F0AD1E06B012807D05A
:103A8000502080F31188BFF34F8FBFF36F8FFEE795
:103A9000FFF70CFD5020EFF3118680F31188BFF380
:103AA0004F8FBFF36F8FA06BE16B884206D3022F5D
:103AB00004D0002086F31188BDE8F08794F94550C2
:103AC0003A4649462046FFF7D6F8681C04D06D1CDC
:103AD00084F845500120EDE7606A0028FAD004F12F
:103AE000240000F0EFF90028F4D0B8F1000FF1D075
:103AF0000121C8F80010EDE72DE9F747002683B053
:103B00008A46040003D0BAF1000F08D011E050201B
:103B100080F31188BFF34F8FBFF36F8FFEE7206CE8
:103B200038B1502080F31188BFF34F8FBFF36F8FF0
:103B3000FEE700F00FF9DFF8F4804FF000094FF0D6
:103B4000805748B9059838B1502080F31188BFF3E9
:103B50004F8FBFF36F8FFEE7FFF734FCA56BC5B146
:103B600051462046FFF774F86D1EA563206950B1D9
:103B700004F1100000F0A6F928B1C8F80070BFF3F6
:103B80004F8FBFF36F8FFFF73DFC012006B0BDE8FC
:103B9000F087059808B11EB106E0FFF733FC27E077
:103BA0006846FFF709FD0126FFF72CFCFFF78AFDA9
:103BB000FFF708FC94F94400401C01D184F84490BC
:103BC00094F94500401C01D184F84590FFF71AFC98
:103BD00005A9684600F02CF8002820460AD0FFF717
:103BE000E1FA00F0A7F92046FFF78EF90028B3D0DC
:103BF0000020CBE7FFF788F990B104F12400059984
:103C0000FFF7E8FC2046FFF7CDFA00F093F9002813
:103C1000A2D1C8F80070BFF34F8FBFF36F8F9BE73F
:103C20002046FFF7BFFA00F085F995E704ED00E0C4
:103C30002DE9F0410C46050011D0C4B1FFF7C2FBDD
:103C4000174B5A696E682068911B471C17D02F6864
:103C50009B6A9F4219D0964217D8012410E0502049
:103C600080F31188BFF34F8FBFF36F8FFEE75020B3
:103C700080F31188BFF34F8FBFF36F8FFEE70024EF
:103C8000FFF7C0FB2046BDE8F081884205D9401A05
:103C900020602846FFF790FCF1E700202060DCE779
:103CA0001C0000202DE9FF5F8346DDE90E87994661
:103CB00016468A469000FFF7ABFA05001CD05C2040
:103CC000FFF7A6FA040014D00020256384F85900F9
:103CD000CDE90240CDE900874B4632465146584671
:103CE000FFF781F82046FEF71FFF012004B0BDE872
:103CF000F09F2846FFF79AFB4FF0FF30F6E7F0B54C
:103D000085B0DDE90B640A9DA6B1DCB15C270097A4
:103D10002663022684F85960002604AFCDE90246E6
:103D2000CDE90057FFF75FF82046FEF7FDFE049847
:103D300005B0F0BD502080F31188BFF34F8FBFF363
:103D40006F8FFEE7502080F31188BFF34F8FBFF3D2
:103D50006F8FFEE70548C16919B1806B18B100206B
:103D60007047012070470220704700001C000020AF
:103D700001484069704700001C0000202DE9F04117
:103D80002E4C0027A06B40B1206A401C2062606A64
:103D900000B101273846BDE8F0816669761C66618E
:103DA00013D16068006838B1502080F31188BFF3E8
:103DB0004F8FBFF36F8FFEE76068A1686160A060FE
:103DC000A06A401CA062FFF76DF9206BDFF87080DD
:103DD000864209D36068006880B16068C068C568C1
:103DE000686886420DD220632068C06A00EB8001BB
:103DF00058F821000128CAD90127C8E74FF0FF3041
:103E0000F1E7281DFFF782FAA86A18B105F118003A
:103E1000FFF77CFAE86AA169884200D9A06100EB4B
:103E2000800108EB8100291DFFF7C0FAE86A2168CC
:103E3000C96A8842CED30127CCE700001C000020CD
:103E40006402002070B504004FF0000133D01B4D18
:103E50002868844207D0502080F31188BFF34F8F29
:103E6000BFF36F8FFEE7206D38B1401E2065E36C15
:103E7000E26A9A421FD040B11DE0502080F31188C1
:103E8000BFF34F8FBFF36F8FFEE7201DFFF73EFAA2
:103E9000E06CE062C0F13800A061E06AA969884284
:103EA00000D9A861064900EB800001EB8000211DCC
:103EB000FFF77CFA0121084670BD00001C000020BD
:103EC0006402002070B5C068C46854B104F11800E1
:103ED0000646FFF71BFA144DA86B50B13146134844
:103EE00015E0502080F31188BFF34F8FBFF36F8F21
:103EF000FEE7201DFFF70AFAE06AA969884200D9A7
:103F0000A8610B4900EB800001EB8000211DFFF749
:103F10004DFAE06A2968C96A884202D901206862BC
:103F200070BD002070BD00001C000020EC060020C9
:103F3000640200202DE9F0472C4D00242746A86B91
:103F400038B1FFF73FFAA86B401EA863A86B40B1D9
:103F500046E0502080F31188BFF34F8FBFF36F8F7F
:103F6000FEE72969224E0120D1B3A6F5916980466A
:103F70003068E0B1F068C46804F11800FFF7C6F9D2
:103F8000201DFFF7C3F9E06AA969884200D9A8613A
:103F900000EB800109EB8100211DFFF707FAE06AC1
:103FA0002968C96A8842E3D3C5F82480E0E70CB1E8
:103FB000FFF778F82C6A4CB14FEA0806FFF7DEFEEF
:103FC00000B16E62641EF9D100202862686A38B1BF
:103FD0000849012738070860BFF34F8FBFF36F8F81
:103FE000FFF710FA3846BDE8F08700001C000020FB
:103FF000EC06002004ED00E010B586B0FEF7FCFDF5
:10400000114CA068B8B100200390049005AA04A93F
:1040100003A8FFF799F9DDE9032102208DE80700E5
:1040200000230AA10B48059AFFF769FEE06010B172
:1040300006B0012010BD502080F31188BFF34F8FD0
:10404000BFF36F8FFEE7000058000020546D722010
:1040500053766300813100082DE9FF411E46134667
:1040600002000A9D4FF0000016D0144CA768002FE4
:104070000FD0CDE900130292062917DAFFF76AFE86
:1040800002284FF000030FD000226946A068FFF716
:1040900025FC04B0BDE8F081502080F31188BFF307
:1040A0004F8FBFF36F8FFEE72A46EEE700233246BD
:1040B00069463846FFF7C2FCEBE7000058000020D5
:1040C000FC480008000000000000000000000000A4
:1040D00000000000000200001800000000000000C6
:1040E00000000000000000000000000001020304C6
:1040F0000607080900000000010203040000000098
:1041000000000000000000000000000000FE0202AD
:1041100002020202003F2020202020200000000098
:1041200000000000000000000000000000FE02028D
:1041300002020202003F20202020202000FE020276
:1041400002020202003F20202020202000FE020266
:1041500002020202003F20202020202000FE020256
:1041600002020202003F20202020202000FE020246
:1041700002020202003F20202020202000FE020236
:1041800002020202003F2020202020200000000028
:10419000000000000000000000000000000000001F
:1041A000000000000000000000000000000000000F
:1041B00000000000000000000000000000FE0202FD
:1041C00002020202003F20202020202000FE0202E6
:1041D00002020202003F20202020202000FE0202D6
:1041E00002020202003F20202020202000FE0202C6
:1041F00002020202003F20202020202000FE0202B6
:1042000002020202003F20202020202000FE0202A5
:1042100002020202003F20202020202000FE020295
:1042200002020202003F20202020202000FE020285
:1042300002020202003F20202020202000FE020275
:1042400002020202003F20202020202000FE020265
:1042500002020202003F20202020202000FE020255
:1042600002020202003F20202020202000FE020245
:1042700002020202003F20202020202000FE020235
:1042800002020202003F20202020202000FE020225
:1042900002020202003F20202020202000FE020215
:1042A00002020202003F20202020202000FE020205
:1042B00002020202003F20202020202000000000F7
:1042C00000000000000000000000000000000000EE
:1042D00000000000000000000000000000000000DE
:1042E00000000000000000000000000000000000CE
:1042F00000000000000000000000000000000000BE
:10430000000000000000000000000000000000F8B5
:1043100000000000000000330000000000100C024C
:10432000100C020000000000000000000040C078F7
:1043300040C0780000043F04043F040000708888F7
:10434000FC08300000182020FF211E00F008F0803B
:104350006018000000310C031E211E0000F00888C8
:10436000700000001E21232C1927211000120E00BE
:10437000000000000000000000000000000000E05D
:104380001804020000000007182040000002041872
:10439000E00000000040201807000000404080F0CE
:1043A000804040000202010F0102020000000000F4
:1043B000E0000000000101010F0101010000000008
:1043C00000000000009070000000000000000000ED
:1043D00000000000000101010101010000000000D7
:1043E000000000000030300000000000000000006D
:1043F000C0380400006018070000000000E010084A
:104400000810E000000F102020100F000000101016
:10441000F8000000000020203F2020000070080865
:104420000808F0000030282422213000003008085D
:10443000088870000018202121221C000000804004
:1044400030F8000000060524243F242400F8888862
:10445000880808000019202020110E0000E01088B4
:1044600088900000000F112020201F00001808086D
:10447000886818000000003E0100000000708808F5
:1044800008887000001C222121221C0000F008086E
:104490000810E0000001122222110F00000000C0ED
:1044A000C00000000000003030000000000000806C
:1044B00000000000000000E000000000000080405C
:1044C00020100800000102040810200000404040B5
:1044D00040404000000202020202020000081020D8
:1044E000408000000020100804020100007048080D
:1044F000088870000000003037000000C030C82875
:10450000E810E000071827282F2817000000C038FF
:10451000E0000000203C23020227382008F88888A9
:1045200088700000203F202020110E00C0300808B5
:1045300008083800071820202010080008F808088C
:104540000810E000203F202020100F0008F8888885
:10455000E8081000203F20202320180008F8888851
:10456000E8081000203F200003000000C0300808C9
:104570000838000007182020221E020008F8080052
:104580000008F808203F210101213F20000808F819
:10459000080800000020203F20200000000008083C
:1045A000F8080800C08080807F00000008F888C0FC
:1045B00028180800203F20012638200008F80800AD
:1045C00000000000203F20202020300008F8F800E4
:1045D000F8F80800203F013E013F200008F830C0F5
:1045E0000008F808203F200007183F00E0100808E6
:1045F0000810E0000F10202020100F0008F8080815
:104600000808F000203F210101010000E010080827
:104610000810E0000F10282830504F0008F8888854
:1046200088887000203F2000030C3020007088082C
:10463000080838000038202121221C00180808F83A
:10464000080818000000203F2000000008F80800BB
:104650000008F808001F202020201F00087888008C
:1046600000C83808000007380E01000008F800F8FC
:1046700000F8080000033E013E03000008186880AF
:104680008068180820302C03032C30200838C8001C
:10469000C83808000000203F20000000100808086B
:1046A000C83808002038262120201800000000FE0D
:1046B000020202000000007F40404000000438C0B9
:1046C00000000000000000010638C00000020202E5
:1046D000FE000000004040407F0000000000040297
:1046E00002040000000000000000000000000000C4
:1046F00000000000808080808080808000020204B2
:1047000000000000000000000000000000008080A9
:104710008000000000192424123F200010F00080C7
:1047200080000000003F112020110E0000000080DA
:1047300080800000000E11202020110000008080E9
:104740008090F000001F202020103F20000080807B
:1047500080800000001F242424241700008080E0B3
:10476000909020000020203F20200000000080804A
:1047700080808000006B94949493600010F000801F
:1047800080800000203F210000203F20008098987A
:10479000000000000020203F2020000000000080DA
:1047A0009898000000C08080807F000010F000001A
:1047B00080808000203F240629302000001010F85F
:1047C000000000000020203F20200000808080802A
:1047D00080808000203F20003F20003F80800080BC
:1047E00080800000203F210000203F2000008080CA
:1047F00080800000001F202020201F00808000807B
:104800008000000080FF912020110E000000008039
:1048100080008000000E11202091FF8080808000A9
:104820008080800020203F21200001000000808047
:10483000808080000033242424241900008080E03C
:10484000808000000000001F2020100080800000F9
:1048500000808000001F202020103F2080808000EA
:104860008080800000030C300C03000080800080FA
:1048700080008080010E300C0738060100808080A7
:10488000008080000020310E2E31200080808000CA
:10489000008080800081867818060100008080807A
:1048A000808080000021302C222130000000000098
:1048B00000FC020200000000013E40400000000039
:1048C000FF00000000000000FF0000000202FC00EA
:1048D0000000000040403E01000000000002010214
:1048E00002040200000000000000000000000000C0
:1048F0000000000000000000000000006465666128
:10490000756C745461736B00284900080000002026
:10491000A00000002E290008C8490008A0000020BF
:10492000F82100003E2900080000000000000000FF
:104930000000000001000000100000000000000066
:104940000024F4000000000000000000000000004F
:104950000000000000000000000000000000000057
:104960000000000000000000000000000000000047
:104970000000000000000000000000000000000037
:104980000000000000000000000000000000000027
:104990000000000000000000000000000000000017
:1049A0000000000000000000000000000000000007
:1049B00000000000AAAAAAAA00000000020000004D
:0849C000D000002000000000FF
:04000005080000ED02
:00000001FF
