:020000040800F2
:100000009820002021020008372100088B1A0008E0
:1000100035210008290500084125000800000000DE
:10002000000000000000000000000000890100083E
:10003000AD06000800000000CD010008DD23000827
:100040003B0200083B0200083B0200083B0200089C
:100050003B0200083B0200083B0200083B0200088C
:100060003B0200083B0200083B0200083B0200087C
:100070003B0200083B0200083B0200083B0200086C
:100080003B0200083B0200083B0200083B0200085C
:100090003B0200083B0200083B0200083B0200084C
:1000A0003B0200083B0200083B0200083B0200083C
:1000B0003B0200083B020008C92400083B0200087C
:1000C0003B0200083B0200083B0200083B0200081C
:1000D0003B0200083B0200083B0200083B0200080C
:1000E0003B0200083B0200083B02000800F002F857
:1000F00000F03AF80AA090E8000C82448344AAF188
:100100000107DA4501D100F02FF8AFF2090EBAE885
:100110000F0013F0010F18BFFB1A43F0010318473B
:10012000C8440000E8440000103A24BF78C878C1F1
:10013000FAD8520724BF30C830C144BF04680C60ED
:10014000704700000023002400250026103A28BF35
:1001500078C1FBD8520728BF30C148BF0B60704739
:100160001FB51FBD10B510BD00F045F91146FFF7D2
:10017000F7FF02F0F6F900F063F903B4FFF7F2FFBE
:1001800003BC00F06BF90000224B19680868B0E866
:10019000F00F80F30988BFF36F8F4FF0000080F3FA
:1001A00011884EF00D0E70470000000006480068F0
:1001B000006880F3088862B661B6BFF34F8FBFF363
:1001C0006F8F00DF00BF00BF08ED00E0EFF3098094
:1001D000BFF36F8F0F4B1A6820E9F00F106008B55E
:1001E0004FF0500080F31188BFF34F8FBFF36F8F34
:1001F00003F0E6F84FF0000080F31188BDE80840F6
:1002000019680868B0E8F00F80F30988BFF36F8FB2
:10021000704700BF18000020EFF305807047000012
:100220000948804709480047FEE7FEE7FEE7FEE78A
:10023000FEE7FEE7FEE7FEE7FEE7FEE704480549C6
:10024000054A064B7047000081240008ED000008B5
:10025000981A002098200020981C0020981C00204C
:10026000032A40F2308010F0030C00F0158011F8E2
:10027000013BBCF1020F624498BF11F801CB00F8BA
:10028000013B38BF11F8013BA2F1040298BF00F80E
:1002900001CB38BF00F8013B11F0030300F0798077
:1002A000083AC0F0088051F8043B083A51F804CBF2
:1002B000A0E80810F5E7121D5CBF51F8043B40F8B8
:1002C000043BAFF30080D20724BF11F8013B11F8C3
:1002D00001CB48BF11F8012B24BF00F8013B00F807
:1002E00001CB48BF00F8012B704702F0FF0343EA3F
:1002F000032242EA024200F002B84FF00002042951
:10030000C0F0128010F0030C00F01B80CCF1040C44
:10031000BCF1020F18BF00F8012BA8BF20F8022B78
:10032000A1EB0C0100F00DB85FEAC17C24BF00F81E
:10033000012B00F8012B48BF00F8012B70474FF04C
:10034000000200B5134694469646203922BFA0E825
:100350000C50A0E80C50B1F12001BFF4F7AF090731
:1003600028BFA0E80C5048BF0CC05DF804EB890022
:1003700028BF40F8042B08BF704748BF20F8022B65
:1003800011F0804F18BF00F8012B7047704770477D
:10039000704710B5203AC0F00B80B1E81850203AF1
:1003A000A0E81850B1E81850A0E81850BFF4F5AF15
:1003B0005FEA027C24BFB1E81850A0E8185044BF9F
:1003C00018C918C0BDE810405FEA827C24BF51F80C
:1003D000043B40F8043B08BF7047D20728BF31F800
:1003E000023B48BF11F8012B28BF20F8023B48BF51
:1003F00000F8012B7047754600F02CF8AE4605005A
:100400006946534620F00700854618B020B5FFF72F
:1004100015FFBDE820404FF000064FF000074FF0F9
:1004200000084FF0000B21F00701AC46ACE8C00912
:10043000ACE8C009ACE8C009ACE8C0098D4670471B
:1004400010B50446AFF300802046BDE81040FFF72A
:1004500094BE000000487047341A0020014918205B
:10046000ABBEFEE7260002007047000070B50446F0
:1004700000688168C943C9071CD1816821F0010166
:10048000816000F0B5FB05460FE000BF00F0B0FB57
:10049000401B022809D9A06A40F01000A062E06A5F
:1004A00040F00100E062012070BD20688068C04318
:1004B000C007EBD0002070BDF8B5002604460096BA
:1004C00000688168C943C90728D0816841F00101EB
:1004D0008160134813490068B0FBF1F000E0401E52
:1004E00000900028FBD100F083FB054611E000BF1F
:1004F00000F07EFB401B02280BD9A06A40F01000E0
:10050000A062E06A40F00100E06284F8246001200B
:10051000F8BD20688068C043C007E9D10020F8BD5D
:100520001400002040420F00FEE7000010B5022139
:10053000034800F04BFB012800D0002010BD000054
:1005400000080140044B08B1012200E00022022112
:10055000184600F047BB0000000801402DE9F05F9D
:1005600082468B460020FFF7EDFF142002F00AF8C8
:10057000012202211C4800F035FB3C2002F0D8FC8F
:10058000FFF7D4FF4FF0FF3958BB4FF47A74214680
:10059000012000F079F820BB2146002000F074F81B
:1005A000F8B900F023F8C5B200F020F800F0FF0819
:1005B00000F01CF8C4B200F019F8C7B200F016F849
:1005C000C6B20120FFF7BEFF05EB08002044384407
:1005D000B04206D1CAF800500020CBF80040BDE878
:1005E000F09F4846FBE70000000801402DE9F0417C
:1005F00000242546671E4FF47A763146012000F02C
:1006000043F870B9282002F093FC6400FFF78EFFD6
:10061000012801D144F001043146002000F034F8F3
:1006200010B13846BDE8F0816D1C082DE5DB204691
:10063000F8E700001CB50120FFF784FF114C4FF4D0
:10064000FA6501A96846FFF789FF18B10120FFF795
:1006500079FF12E004210020009A01F0DFFBC0B214
:100660002522042101F0DEFB04210920019A01F07A
:10067000D5FB1021204600F0AEFA284602F0A4FD7A
:10068000DFE700000008014070B50C46054608E0B1
:10069000FFF74CFFA84201D1002070BD012002F0FD
:1006A00047FC641EF4D24FF0FF3070BD704772B645
:1006B000FEE70000F8B500250446009590F82400F8
:1006C000012808D0012084F824002046FFF7CEFE40
:1006D000060002D04BE00220F8BDA06A20F488504A
:1006E00040F00200A062022000F068FD2249096883
:1006F000B1FBF0F0400000E0401E00900028FBD16C
:100700002046FFF7D9FE2068816841F0080181602A
:1007100000F06EFA074604E000F06AFAC01B0A28EF
:1007200011D8206880680007F6D42068816841F0FD
:100730000401816000F05CFA07460EE000F058FA10
:10074000C01B0A2809D9A06A20F0020040F010005E
:10075000A06284F824500120F8BD2068806840071A
:10076000ECD4A06A20F0020040F00100A06284F8FE
:1007700024503046F8BD000014000020F8B50024D5
:10078000009490F824202546012A12D0012280F8F6
:1007900024204A681F23072A0DD20668776B521E51
:1007A00002EB820293409F430B6893401F437763A1
:1007B00019E00220F8BD06680D2A0AD2376BD21F55
:1007C00002EB820293409F430B6893401F433763C1
:1007D00009E0F76A0D3A02EB820293409F430B68EF
:1007E00093401F43F7620A68072306680A2A0AD360
:1007F000F7680A3A02EB420293409F438B689340AA
:100800001F43F76008E0376902EB420293409F43C1
:100810008B6893401F4337610A68102A01D0112A60
:1008200020D1124B02689A4217D193681B0219D447
:10083000936843F4000393600968102912D10C49AE
:100840000C4A0968B1FBF2F101EB8101490000E0BB
:10085000491E00910029FBD104E0816A41F020018A
:100860008162012480F824502046F8BD0024014014
:100870001400002040420F002DE9F0414FF0000726
:1008800004003D467ED0A06A002628B9E66284F8BE
:100890002460204600F07EF82046FFF7E7FDA16ABD
:1008A000C90600D420B1A06A40F01000A06269E03F
:1008B000A16A21F4885141F00201A1626268E169F4
:1008C000237B0A4347EA43010A43A1684FF4807738
:1008D000B94209D0012907D05FF0000194F814C093
:1008E000BCF1010F02D00AE03946F7E7F3B1A36A81
:1008F00043F02003A362E36A43F00103E362236849
:10090000D3F804C02CF4694C4CEA010CC3F804C0C1
:1009100021688B68DFF870C003EA0C0313438B6017
:10092000A168B9420BD0012909D00CE0DFF85CC006
:10093000A3690CEB43330B4343F40061DFE7218AE7
:100940000D05A5F580152168CB6A23F470032B43B0
:10095000CB62216889680E4B1940914208D1E6624A
:10096000A16A21F0020141F00101A162BDE8F0811C
:10097000A06A20F0020040F01000A062E06A40F09F
:100980000100E0620120F1E7FDF7E1FF00E0FFFF79
:10099000FE0E1FFF00B585B000210091019102916C
:1009A000039100680E49884218D10E48816941F4CC
:1009B00000718161816901F400710491816941F0E4
:1009C000040181618069694600F0040004900920F7
:1009D000009003200190044800F008F805B000BD25
:1009E0000024014000100240000801402DE9F84FAA
:1009F000DFF8B891002409F1040A0AF1040B234638
:100A00000F270BF1040EC9E00125A5402A40AA4298
:100A10007DD1674ED1F804C0ACEB0608B44532D0A6
:100A200014DCBCF1030F3AD009DCBCF1000F2AD072
:100A3000BCF1010F1CD0BCF1020F31D11DE0BCF1A3
:100A4000110F17D0BCF1120F2AD119E0B8F5881F89
:100A500019D006DCB8F5803F15D0B8F5801F1FD13E
:100A600011E0B8F5001F0ED0B8F5041F18D10AE048
:100A7000CB6815E0CB681B1D12E0CB6808330FE094
:100A8000CB680C330CE08B682BB1012B4FF00803C3
:100A900003D0456104E0042302E0056100E0002387
:100AA000FF2A01D8064601E000F104064FEA84055A
:100AB00001D9A5F12005D6F8008007FA05FC28EA3F
:100AC0000C0803FA05F548EA0508C6F800804D68E9
:100AD000ED0062D5374DAE6946F00106AE61AD69F5
:100AE00024F0030605F001050095334D06EB050CD7
:100AF000DCF80850A607360F07FA06F825EA0805BD
:100B0000DFF8B880404503D14FF0000817E044E01B
:100B1000DFF8AC80404502D14FF001080FE0DFF86C
:100B2000A480404502D14FF0020808E0DFF8988029
:100B3000404502D14FF0030801E04FF0040808FAE5
:100B400006F848EA0508CCF808804D68D9F8006036
:100B5000ED034D4601D5164300E096432E604D68E7
:100B6000DAF80060AD03554601D5164300E0964320
:100B70002E604D68DBF80060ED025D4601D516433E
:100B800000E096432E604D68DEF80060AD027546C9
:100B900001D5164300E096432E60641C0D682A467A
:100BA000E5407FF431AFBDE8F88F0000000401405C
:100BB0000000111000100240000001400008014038
:100BC000000C014000100140001401408068084002
:100BD00000D001207047C2680A4201D041617047CD
:100BE000016170470AB1016170470904FBE7000029
:100BF00001488068704700000800002070B50400BC
:100C00001BD094F83D00002520B984F83C502046C4
:100C100000F0DCF9242084F83D002068016821F010
:100C20000101016000F05AFC4D4A6168914201D80F
:100C30004C4900E04C49884201D2012070BD4B492B
:100C40002368B0FBF1F15E6826F03F060E435E605C
:100C50006368934206D94FF4967359434FF47A73FD
:100C6000B1FBF3F12368491C1E6A26F03F063143AD
:100C700019626168914210D84900401EB0FBF1F240
:100C8000521CC2F30B02042A01D2042022E0B0FB62
:100C9000F1F0401CC0F30B001CE0A368F3B301EBC0
:100CA000C10202EB0116421EB2FBF6F2521C42F4E4
:100CB0008042120549D093B301EBC10202EB01114E
:100CC000401EB0FBF1F0401CC0F30B0040F480402C
:100CD00040F400402168CA694CF6FF739A43104300
:100CE000C861D4E90701084321680A6822F0C002FC
:100CF00010430860D4E9030101432068826848F288
:100D0000FF339A4311438160D4E905010843216808
:100D1000CA6822F0FF021043C86001E00EE016E04E
:100D20002068016841F0010101602564202084F8F9
:100D30003D00256384F83E50002070BD01EB410664
:100D4000421EB2FBF6F2521CB3E70120C2E701EBF0
:100D50004101401EB0FBF1F0401CC0F30B00B7E7AF
:100D6000A086010080841E0000093D0040420F0063
:100D70002DE9F84F1F4690468A460446DDF8289034
:100D8000FFF736FF054694F83D0020287FD1192350
:100D9000012240492046009500F044FF002876D10A
:100DA00094F83C00012872D0012084F83C002068AF
:100DB0000168C90703D1016841F0010101602068A1
:100DC000016821F400610160212084F83D001020B9
:100DD00084F83E0000262664C4F824806785608D70
:100DE00020852D48E0622B464A465146204600F0B9
:100DF00065FE90B9206841698069009036E02A4616
:100E00004946204600F08DFF50B1206C042804D1E3
:100E10002068016841F4007101600120BDE8F88F8D
:100E2000606A216800780861606A401C6062618DB8
:100E3000491E6185218D491E89B221852268536929
:100E4000DB435B070BD451B100781061606A401C32
:100E50006062608D401E6085208D401E20852A4680
:100E60004946204600F0B8FE0028CED1208D00284B
:100E7000C5D154F83D0B016841F400710160202098
:100E800004F81E09E67766770020C7E7FFE702202F
:100E9000C4E70000020010000000FFFF2DE9FF4F33
:100EA00083B09A46DDE9119793460446DDF8408009
:100EB000FFF79EFE054694F83D0020287FD11923B8
:100EC000012240492046009500F0ACFE002876D172
:100ED00094F83C00012872D0012084F83C0020687E
:100EE0000168C90703D1016841F001010160206870
:100EF000016821F400610160212084F83D00402058
:100F000084F83E0000262664C4F82480A4F82A90C1
:100F1000608D20852C48E062CDE9007553465A4625
:100F20002046049900F00EFE70B930E02A4639469A
:100F3000204600F0F6FE58B1206C042804D1206849
:100F4000016841F400710160012007B0BDE8F08F35
:100F5000606A216800780861606A401C6062218DC7
:100F6000491E89B22185628D521E628522685369AD
:100F7000DB435B070BD469B100781061606A401CE9
:100F80006062208D401E2085608D401E6085208D12
:100F90000028CBD12A463946204600F01DFE002805
:100FA000CAD154F83D0B016841F400710160202062
:100FB00004F81E09E67766770020C6E7FFE70220FF
:100FC000C3E70000020010000000FFFF10B586B06C
:100FD0000021009101910291039100680F4988421C
:100FE0001AD10F4CA06940F00800A061A0696946C1
:100FF00000F008000490C02000901220019003200F
:1010000003900848FFF7F2FCE06940F40010E0614B
:10101000E06900F40010049006B010BD00540040D8
:1010200000100240000C014002488168027811441F
:101030008160704708000020074810B5016841F042
:1010400010010160032000F0A7F80F2000F006F85F
:1010500000F050F8002010BD0020024030B50546D9
:101060001F4887B0C16941F00401C161C06906A988
:1010700000F00400009001A800F010FA0498B0B14C
:1010800000F02CFA40001749174AB0FBF1F117485D
:10109000491E0260416040F2E7320021C0E90321AD
:1010A0008160816100F002FC040003D015E000F0D3
:1010B00015FAE8E70D4800F015FC04000DD11E20DC
:1010C00000F03CF8102D07D2002229461E2000F027
:1010D00043F80748056000E0012407B0204630BD12
:1010E0000010024040420F00000800402001002094
:1010F0000C0000200F4808B5816941F001018161B1
:10110000816901F001010091C16941F08051C16123
:10111000C069002200F0805000900F21901E00F066
:101120001BF80548416821F0E06141F00071416021
:1011300008BD00000010024000000140002809DB4B
:1011400000F01F02012191404009800000F1E020E1
:10115000C0F8001170470000F0B40E4B1B680C463D
:10116000C3F30223C3F10705042D00D90425191D7B
:10117000072901D2002300E0DB1E012606FA05F153
:10118000491E214099409E40761E16403143F0BCD6
:1011900001F0D7B90CED00E0064900F0070208683D
:1011A0004FF6FF03184040EA0220034A104308604C
:1011B000704700000CED00E00000FA0510B529A40E
:1011C00001461DCC86B08DE81D002AA02A4C00687F
:1011D00004900020012923D002293AD010291DD1E2
:1011E00061682268D20119D5C1F38342C9031DF891
:1011F000020009D5616804AAC1F34041515C1F4A4D
:10120000B2FBF1F1484301E01D49484361684902DE
:1012100004D440005FF00301B0FBF1F006B010BD54
:10122000226AC2F30121012903D1920701D5C80323
:10123000F4E7022905D1626A920702D549F64040D7
:10124000ECE70329EAD121688903E7D54FF224406E
:10125000E4E700F053F96168C1F38131491C4900AA
:10126000DAE7000002030405060708090A0B0C0D63
:101270000E0F1010010200000010024000127A0050
:1012800000093D002DE9F84305460078354CC007BC
:1012900054D0E0690026C00008D4E06940F08050D6
:1012A000E061E069012600F0805000902E4801685E
:1012B000C90512D40168804641F480710160FFF7CE
:1012C00097FC074605E000BFFFF792FCC01B6428AF
:1012D00023D8D8F80000C005F6D5206A10F4407075
:1012E00021D0A98801F4407181421CD0206A1F4995
:1012F000012220F440700A6000220A602062C007C8
:1013000011D0FFF775FC074641F2883808E000BFAE
:10131000FFF76EFCC11B414502D90320BDE8F883ED
:10132000206A8007F4D5206A696820F44070084379
:1013300020621EB1E06920F08050E06128788007CB
:1013400005D56068A96820F44040084360602878AB
:10135000C00605D56068E96820F480000843606035
:101360000020DBE7001002400070004040044242D1
:101370002DE9F0470F46050061D0434E306800F07C
:101380000700B84209D2306820F0070038433060C7
:10139000306800F00700B84251D128683B4C810703
:1013A00012D5400703D5606840F4E060606028789B
:1013B000000703D5606840F4605060606068A96809
:1013C00020F0F000084360602878C00728D06868E3
:1013D000012810D02168022810D0890700292EDAB0
:1013E000616821F0030101436160FFF701FC804661
:1013F00041F288390DE021688903EFE78901EDE7C3
:10140000FFF7F6FBA0EB0801494502D90320BDE830
:10141000F0876068696800F00C00B0EB810FEFD1D5
:10142000306800F00700B8420BD9306820F00700A0
:1014300038433060306800F00700B84201D0012026
:10144000E5E72878400705D56068E96820F4E060A2
:10145000084360602878000706D56068296920F491
:10146000605040EAC100606000F058F86168084AC6
:10147000C1F30311515CC840064908600648006882
:10148000FFF7ECFD0020C2E7002002400010024000
:10149000C43D0008140000200C0000200F22026050
:1014A0000C4A536803F003034360536803F0F003EE
:1014B0008360536803F4E063C36052684FF4E063F1
:1014C00003EAD20202610448006800F007000860E5
:1014D0007047000000100240002002400448054907
:1014E00000684968044AC1F30221515CC840704752
:1014F0001400002000100240D43D000804480549B3
:1015000000684968044AC1F3C221515CC840704771
:101510001400002000100240D43D000812A185B044
:101520000FC98DE80F0014A0144A00680490516898
:10153000134801F00C03042B10D0082B0ED1C1F37B
:101540008343C9031DF803000AD5516804AAC1F3F7
:101550004041515C0A4A5043B0FBF1F005B070477E
:1015600008494843FAE70000020304050607080992
:101570000A0B0C0D0E0F10100102000000100240AB
:1015800000127A0000093D002DE9F84F040070D0E8
:101590002078C04DC00749D06868C0F38100012899
:1015A00007D06868C0F38100022809D16868C003C9
:1015B00006D52868800339D560680028E7D035E073
:1015C0006068B0F5803F0BD010B1B0F5A02F11D0FE
:1015D000286820F480302860286820F4802002E009
:1015E000286840F480302860606890B1FFF700FB05
:1015F00006460AE0286840F480202860F0E700BF33
:10160000FFF7F6FA801B642873D828688003F7D5A3
:101610000CE0FFF7EDFA064605E000BFFFF7E8FA39
:10162000801B6428F0D828688003F7D420789A4E6D
:1016300080074FF001094FF0000839D5686810F0B5
:101640000C0F07D06868C0F38100022809D16868D0
:10165000C00306D42868800714D52069012808D162
:1016600010E02069B0B1C6F80090FFF7C1FA074654
:1016700005E00AE1FFF7BCFAC01B0228C4D82868BD
:101680008007F7D52868616920F0F80040EAC100BA
:1016900028600DE0C6F80080FFF7AAFA074604E0CC
:1016A000FFF7A6FAC01B022823D828688007F7D4C2
:1016B000207800072CD57948A169D9B1C0F80090ED
:1016C000FFF796FA074604E0FFF792FAC01B0228DC
:1016D0000FD8686A8007F7D571484FF4FA5100684F
:1016E000B0FBF1F0009000BF0098411E0091FAD2CB
:1016F0000EE080E0C0F80080FFF77AFA074604E0C9
:10170000FFF776FAC01B022875D8686A8007F7D4FD
:101710002078400760D5E8690027C00008D4E86950
:1017200040F08050E861E869012700F080500090A7
:101730005C480168C90513D40168834641F480718F
:101740000160FFF755FA824606E000BFFFF750FA46
:10175000A0EB0A0064284ED8DBF80000C005F5D5E0
:10176000E06801280AD008B1052813D0286A20F0C3
:1017700001002862286A20F0040002E0286A40F094
:1017800001002862E06841F2883B98B1FFF730FA27
:1017900082460BE0286A40F004002862EEE700BFB2
:1017A000FFF726FAA0EB0A0159455AD8286A8007A4
:1017B000F6D50CE0FFF71CFA824605E0FFF718FAB1
:1017C000A0EB0A0159454CD8286A8007F6D41FB10E
:1017D000E86920F08050E861E06988B36968C1F386
:1017E0008101022944D00228C6F8608004D0FFF7A6
:1017F000FFF9044638E034E0FFF7FAF9074604E061
:10180000FFF7F6F9C01B02282BD828688001F7D40F
:10181000206AB0F5803F05D16868A16820F40030E7
:1018200008436860D4E908010843696821F4741129
:1018300008436860C6F86090FFF7DAF9044606E0EE
:1018400025E000BFFFF7D4F9001B022809D828685B
:101850008001F7D51BE000BFFFF7CAF9001B022883
:1018600002D90320BDE8F88F28688001F4D40EE087
:101870000128F7D06868226A00F48031914204D1CF
:10188000616A00F47010884201D00120EAE700206C
:10189000E8E700000010024000004242800442429B
:1018A00014000020007000407047704710B504001D
:1018B00003D094F83D0010B107E0012010BD0020D6
:1018C00084F83C00204600F00CF8022084F83D002B
:1018D000211D206800F0FEFD012084F83D0000205D
:1018E00010BD70470168CA6842F00102CA60006812
:1018F000816801F00701062903D0016841F0010168
:10190000016000207047704770B5044600680169A7
:101910004FF00005C943890715D4C168C943890739
:1019200011D4E91E016101202077206880698007B9
:10193000204602D0FFF7E7FF04E000F098F82046C9
:1019400000F096F8257720680169C943490717D444
:10195000C168C943490713D46FF004010161022033
:1019600020772068806910F4407F204602D0FFF77E
:10197000CAFF04E000F07BF8204600F079F82577F4
:1019800020680169C943090716D4C168C94309071A
:1019900012D46FF008010161042020772068C0692B
:1019A0008007204602D0FFF7AEFF04E000F05FF8AA
:1019B000204600F05DF8257720680169C943C90613
:1019C00017D4C168C943C90613D46FF0100101616F
:1019D000082020772068C06910F4407F204602D09C
:1019E000FFF791FF04E000F042F8204600F040F8D5
:1019F000257720680169C943C90708D1C168C9436F
:101A0000C90704D1891E0161204600F033F820681F
:101A10000169C943090609D4C168C943090605D447
:101A20006FF0800101612046FFF73EFF20680169E9
:101A3000C943490609D4C168C943490605D46FF0B2
:101A400040010161204600F01FF820680169C94388
:101A500089060BD4C168C943890607D46FF02001F9
:101A600001612046BDE87040FFF71FBF70BD7047A1
:101A70007047000000680349884201D1FFF7D4BADB
:101A800070470000000800407047FEE701684A699F
:101A9000D24352050FD46FF480624A61002140F8AE
:101AA000301F202242738173026942F004020261F6
:101AB000017301207047002070470000F8B504460C
:101AC000C06A1E460D461746082807D0012805D0D3
:101AD00010F5803F02D0206B122804D120680168E5
:101AE00041F480710160134600224FF0011120463D
:101AF000009600F097F808BB2069B0F5804F0ED033
:101B00000620216800EAD51040F0F0000861334655
:101B10003A460B49204600F0B9F878B902E005F0E2
:101B2000FE0000E0E8B221680861054933463A4604
:101B3000891F204600F0AAF8002800D00120F8BD37
:101B4000080001002DE9F843044600680D46DDE970
:101B5000089701689846164641F4807101604B462B
:101B600000224FF001112046009700F05BF8E0B929
:101B7000216805F0FE0008613B464A4615492046AB
:101B800000F084F888B920684169806900903A467D
:101B90004946204600F0C5F850B1206C042804D115
:101BA0002068016841F4007101600120BDE8F883FC
:101BB000F5B2B8F1010F09D02168300A08613A4640
:101BC0004946204600F0ADF80028E6D120680561BE
:101BD0000020EBE70200010070B516460D460446F2
:101BE0000DE02046FFF752FF08B1012070BD681CD0
:101BF00005D0FEF7FDFF801BA84207D835B120684D
:101C00004069C0434007ECD4002070BD002044F878
:101C1000300F20216173A073216941F020012161FF
:101C20002073E2E72DE9F0471E4690460D46044634
:101C3000C1F30747DDF8209008E0701C06D0FEF7DE
:101C4000D7FFA0EB0900B0420FD876B12068012F72
:101C500018D0806925EA00000004000C14D000218F
:101C60004145EAD00020BDE8F087002044F8300F5D
:101C700020216173A073216941F02001216120734B
:101C80000120F0E74069E5E70121E9E72DE9F047A8
:101C90009A4691460E46044600254FF02008C1F3AF
:101CA000074725E020684069C043400514D42068F8
:101CB000016841F40071016021686FF4806048613F
:101CC000256384F83D8084F83E50206C40F0040089
:101CD000206484F83C501FE0B9F1FF3F08D0FEF7C4
:101CE00087FFA0EB0A0149450CD8B9F1000F09D0D4
:101CF0002068012F13D0806926EA00000004000C40
:101D00000BD0CFE744F8305F84F80D80A5732069CD
:101D100040F02000206125730120BDE8F087406974
:101D2000EAE770B516460D4604460DE02046FFF77B
:101D3000ADFE08B1012070BD681C05D0FEF758FF4C
:101D4000801BA84207D835B120684069C04300060F
:101D5000ECD4002070BD002044F8300F20216173C6
:101D6000A073216941F0200121612073E2E70000A6
:101D70001FB50020019003900220009001200290E6
:101D800069460248FEF732FE1FBD0000000C01400C
:101D900010B502210348FEF719FF08B1002010BD5D
:101DA000012010BD000C0140FFF7E2FF00F04CF8ED
:101DB00000F02EF84FF4FA76FFF7EAFF05460146E9
:101DC000012000F031F80BA20221002000F028F8D9
:101DD00004460DB109A200E00AA2E0B2022100F01F
:101DE0001FF82044C0B2022100F014F8304601F080
:101DF000EBF9E1E74B6579203A20000050726573FA
:101E00007365640052656C65617365640000000071
:101E100000F092B900F0A5B900F0B2B900F0FAB93B
:101E200000F037BA00F04EBA10B506484FF4005330
:101E300009B1002200E001221946FEF7D3FE00207E
:101E400010BD00000010014070B586B0002411489C
:101E50000094019402940394816941F0100181611E
:101E600080690D4E00F010004FF40055049022469A
:101E700029463046FEF7B6FE01200095CDE9010463
:101E80000220039069463046FEF7B0FD06B0002000
:101E900070BD000000100240001001401FB508484E
:101EA0000068FEF707FC00200190029003904FF4B9
:101EB0000060009069460348FEF798FD1FBD0000D2
:101EC00098000020000C014010B504464FF400615A
:101ED0000348FEF77BFE012800D00020207010BDD3
:101EE000000C014008B5FFF7D9FFFFF791FF0C4C3C
:101EF0004FF4FA7500210BA20846FFF791FF6846E0
:101F0000FFF7E2FF9DF8002000210E20FFF786FF7B
:101F100020212046FEF75FFE284601F055F9E9E74B
:101F2000000801404C696768742053656E736F72D6
:101F30003A2000003EB50024104800940194029419
:101F40000D498460016004730475012505614FF437
:101F500060214460C161FEF78FFC08B1FEF7A7FB6A
:101F6000CDE90045694605480294FEF707FC0028C4
:101F700001D0FEF79CFB3EBD002401409C000020E8
:101F80007CB5FFF749FFFFF743FF114A00211148D5
:101F900000F05CFB104E002419257060CDE9005460
:101FA000234680220DA1114801F0ECFCCDE900543C
:101FB000002380220EA1124801F0E4FCCDE9005478
:101FC000002380220FA1124801F0DCFC30607CBDB0
:101FD000A03D0008C1230008000000204C6967688C
:101FE0007453656E736F725461736B00E51E000865
:101FF0004C656453656E736F725461736B000000BF
:10200000A91D000844487431315461736B0000000D
:10201000350600082DE9F04186B0002431480094CF
:10202000019402940394816941F0100181618169F6
:1020300001F010010491816941F020018161816901
:1020400001F020010491816941F0040181618169FD
:1020500001F004010491816941F008018161806906
:10206000214F00F008004FF400550490002229464B
:102070003846FEF7B7FDDFF8748000223221404673
:10208000FEF7B0FD0126CDE9005602256946384627
:10209000CDE90245FEF7AAFC1120CDE90050CDE9BB
:1020A000026569464046FEF7A1FC3020CDE90006F6
:1020B00069464046CDE90245FEF798FCCDE900545B
:1020C0000B4D694602962846FEF790FCE814CDE9D0
:1020D0000004694628460294FEF788FC06B0BDE875
:1020E000F081000000100240001001400008014093
:1020F000000C01400D4810B50B4901600C494160CE
:1021000000214FF480428160C0E903124161816186
:10211000C1610162FEF772FD002803D0BDE81040E6
:10212000FEF7C5BA10BD000000540040CC000020EE
:10213000A0860100FEE7FEE710B5A0B000248021D4
:102140006846FEF7FCF80021204600F0F5F88021F3
:10215000684600F025F9641CE4B2082CF3D320B0E3
:1021600010BD70B50D46044606E0202229462046E3
:1021700000F0A8F8641CE4B2102CF6D370BD000087
:1021800010B50224202000F0F7F8204600F0F4F803
:102190001F4804703F24A82000F0EEF8204600F00D
:1021A000EBF80024D32000F0E7F8204600F0E4F834
:1021B000402000F0E1F8A12000F0DEF8C82000F097
:1021C000DBF80021084600F0A1F87F24812000F010
:1021D000D3F8204600F0D0F8A42000F0CDF8A620D7
:1021E00000F0CAF8D52000F0C7F8802000F0C4F84D
:1021F0008D2000F0C1F8142000F0BEF8002101206D
:1022000000F084F8BDE81040AF2000F0B5B8000041
:1022100090000020F0B589B00024074620466D46A6
:1022200004AE002A08DA4FF02D038DF800304FF08D
:102230000104C2F1000214E006D14FF030008DF825
:1022400000004FF001041AE04FF00A0C92FBFCF37F
:102250000CFB132392FBFCF203F13003335400F127
:102260000100002AF0D108E006EB0002A0F1010015
:1022700012F8012C2A5504F101040028F4D14FF082
:10228000000028552A46384600F003F809B02046D9
:10229000F0BD2DE9F04117460E46044600250BE03F
:1022A0003146204600F00EF8641CE4B20F2C02D92F
:1022B0000024B61CF6B26D1C7A5D002AF0D12846C7
:1022C000BDE8F08170B51646C206150E0C4607290A
:1022D00018D80F2816D82946204600F02DF80A48AD
:1022E000082100EB0610064600F05AF8641CE0B224
:1022F000294600F021F806F10800BDE870400821E9
:1023000000F04EB870BD0000DC3D000870B50C4612
:10231000050001D0012D0ED10CB1012C0BD1DA201A
:1023200000F02AF8280100EB4410BDE87040801C42
:10233000C0B200F021B870BD70B50E4D0C462978C2
:10234000022905D1072803D8B030C0B200F014F834
:10235000287802280CD17F2C0AD804F00F0000F056
:102360000BF8102000EB1410BDE8704000F004B82A
:1023700070BD0000900000201CB500218DF80410F5
:102380008DF805004FF4FA7000900448022301AA6A
:1023900078214068FEF7ECFC1CBD00009000002096
:1023A0000EB54FF4FA728DE807000448012340226D
:1023B00078214068FEF772FD0EBD000090000020FD
:1023C000FFF72AFDFFF724FD034C142000F0E8F886
:1023D000606800F01FFFF8E70000002010B55020F3
:1023E00080F31188BFF34F8FBFF36F8F01F036FB7F
:1023F00018B104494FF080500860002080F3118824
:1024000010BD000004ED00E030B593B0282168460F
:10241000FDF795FF14210AA8FDF791FF0024012183
:102420000F9410940804CDE90010119412940294B2
:1024300002250491CDE907504FF4E0100990684659
:10244000FFF7A2F808B172B6FEE70F20CDE90A0542
:102450004FF48060CDE90C4002210AA80E94FEF7EB
:1024600087FF08B172B6FEE70FA80F951194FEF72B
:1024700009FF002801D072B6FEE713B030BD00009E
:102480000D48016841F00101016041680B4A1140AB
:10249000416001680A4A11400160016821F480210D
:1024A0000160416821F4FE0141604FF41F01816029
:1024B0000449C00308607047001002400000FFF8A4
:1024C000FFFFF6FE08ED00E00148FFF71DBA00002F
:1024D00020010020F0B50268164B174C174D4FF045
:1024E0008047984205D0B84203D0A04201D0A8420C
:1024F00003D122F070064A683243984205D0B842B0
:1025000003D0A04201D0A84203D122F44074CA688B
:1025100022434C6922F08002224302608A68C26230
:102520000A688262984201D109690163012141610F
:10253000F0BD0000002C01400004004000080040F5
:10254000FEE70907090E002804DB00F1E02080F80F
:102550000014704700F00F0000F1E02080F8141D17
:102560007047FEF769FDFFF74FFFFFF753FDFFF7D9
:10257000C1FDFFF7DFFC00F02DF8FFF701FD00F0D3
:1025800045F8FEE770B5054600244FF47A7603E07F
:10259000304600F0CDFC641CAC42F9DB70BD00009D
:1025A00010B5EFF3058149B9EFF3108131B908494E
:1025B0000968022905D1EFF3118111B16FF005040B
:1025C00003E0002408B100F0FFFD204610BD00002C
:1025D00068000020EFF3058058B9EFF3108040B990
:1025E00009490868022801D030B109E0EFF31180F1
:1025F00030B16FF00500704701200860002070477F
:102600004FF0FF30704700006800002010B5EFF376
:10261000058060B9EFF3108048B90B4908680228BB
:1026200002D0012806D00BE0EFF3118040B16FF02B
:10263000050010BD0220086000F076FE002010BDED
:102640004FF0FF3010BD000068000020F0B585B0ED
:102650004FEA01034FF00004EFF305810394A1BB9F
:10266000EFF3108189BB21490968022902D1EFF3F8
:10267000118151BB48B3802618218DF8104004AD5C
:1026800042B3176807B13D4697691FB139467F1EAF
:10269000382F02D21779FF0702D0002005B0F0BD15
:1026A000576907B1BE08D2F808C0BCF1000F0DD0C1
:1026B000D4685C2C18D312693AB137B18DE8061092
:1026C0003246294601F08BF903900DE0D7685FB9D7
:1026D00012694AB903AACDE90012B2B2294601F043
:1026E00051F9012800D003940398D7E7680000202F
:1026F0002DE9F041134C0F46054666692068001D20
:1027000000F032FC681C07D137B12168BDE8F04108
:102710000D48091D00F078BC20683544B54245607D
:10272000216805D2A068BDE8F041091D00F054BC45
:102730006068091D00F050FC206B854200D22563C3
:10274000BDE8F08118000020500600202DE9F0417E
:10275000054600F065FC2D4C2069401C2061206876
:102760002B4F10B1E06930B32BE0256020690128C0
:1027700027D1002606EB860007EB800000F01EFC48
:10278000761C382EF6D3234800F018FC214814306C
:1027900000F014FC1F48283000F010FC1D483C30AD
:1027A00000F00CFC1B48503000F008FC1948606039
:1027B0001430A06005E02068E96AC06A884200D849
:1027C0002560E06A401CE0626864E86AA1698842AA
:1027D00000D9A06100EB800007EB8000291D00F00C
:1027E00013FC00F03DFCE06900280CD02068E96A89
:1027F000C06A884207D208494FF080500860BFF392
:102800004F8FBFF36F8FBDE8F081000018000020EC
:10281000A00100200006002004ED00E038B500F023
:10282000FFFB104CA068C8B90F4800F0C7FB0E486A
:10283000143000F0C3FB0C482060143060600A4B79
:1028400000202833009003F1500210210A2000F0EC
:102850003DFEA06010B105A100F080FCBDE838404D
:1028600000F0FEBB5400002064060020546D72513D
:102870000000000030B4026C0B46002A0BD0C16887
:102880001144C1604468A14201D30168C16030BCF9
:102890001846FDF7E5BC30BC70472DE9F041856B6B
:1028A000174604460026026C82B1C7B1E068FDF706
:1028B000D7FCE168206C091AE1602268914202D2DB
:1028C0006168081AE060022F16D017E02068A8B9E6
:1028D000606801F027F90646002060600EE0A068FD
:1028E000FDF7BEFC216CA0680844A06061688842C6
:1028F00004D32068A06001E005B16D1E6D1CA563C6
:102900003046BDE8F08110B5044690F8590058B142
:1029100001280CD002280FD0502080F31188BFF37B
:102920004F8FBFF36F8FFEE7206B00F0ADFB2046AB
:10293000BDE8104000F0A8BB10BD000010484FF4E7
:102940004061420706D0C01D0D4920F00700411A22
:10295000C1F540610B4A00230144C2E90003083974
:10296000103A21F0070111604B600B600B1AC0E9AF
:10297000001393604FF000405360D0607047000038
:10298000340E00207C000020144E154CA6F29C470B
:102990004FF08058DFF84C9012E000BF00F040FB91
:1029A000F068C568281D00F0DFFA2069401E20612C
:1029B000E068401EE06000F053FB2846FFF7A3FFED
:1029C000E0680028EAD138680128F9D9C9F8008000
:1029D000BFF34F8FBFF36F8FF2E700003C0600207C
:1029E0001800002004ED00E070B51D46049C51B1B4
:1029F000C4F80020C4E90F010121204600F09AFD2F
:102A000084F84C5070BD2460F4E72DE9F0470E4681
:102A1000DDE909841746824691009946089DA52262
:102A2000206BFDF762FC6FF00301206B01EB870167
:102A3000084420F00707780707D0502080F311885A
:102A4000BFF34F8FBFF36F8FFEE72218315C82F820
:102A50003410315C11B1401C1028F6D3002684F8E4
:102A60004360382D00D33725E562C4E91356201D95
:102A700000F0AFFA04F1180000F0ABFA2461C5F1E0
:102A800038006462A061666584F858604A46514621
:102A9000384600F03BFA2060B8F1000F01D0C8F8CA
:102AA0000040BDE8F087000030B5114900E0114654
:102AB0000A688242FBD34B685C18844203D14068A9
:102AC00018444860084643681C18944209D1084CD1
:102AD000103C2468A24209D052681A4442600A6835
:102AE00012680260814200D0086030BD0460F9E7DE
:102AF0007C00002070B5002441600B4D00619142C4
:102B000006D8D11A8269914206D2011D686807E091
:102B10009A4203D2994201D3012403E0011D28689F
:102B200000F05AFA204670BD5400002010B504464B
:102B300000F076FAA06B28B15FF0000400F090FA84
:102B4000204610BD0124F9E730B589B0304D55E07D
:102B50000498002806DADDE90601059A90470498F2
:102B600000284BDB069C606910B1201D00F0FCF9C9
:102B700002A800F0B9F8024604980A283ED2DFE81D
:102B800000F00505053D263705053D260598A16998
:102B9000034601442046FFF7ADFF00B3616A2046BB
:102BA0008847E069012829D1002000900598A16993
:102BB000002342181946204601F0BEF878B950208B
:102BC00080F31188BFF34F8FBFF36F8FFEE7059837
:102BD000A06128B1811813462046FFF78BFF0DE056
:102BE000502080F31188BFF34F8FBFF36F8FFEE744
:102BF00094F82C0010B9204600F046FA002204A9EF
:102C0000A86800F0E9FD0028A2D109B030BD00009D
:102C1000540000202DE9FC410F46054600F0C8FB9A
:102C200001A800F061F80446019818B100F0F2FF25
:102C3000BDE8FC81224EAFB170680068A8B30027E0
:102C4000291B3A46B06800F09DFA00F0E3FF002827
:102C5000EED11C494FF080500860BFF34F8FBFF397
:102C60006F8FE5E7A542EBD800F0D4FF3068274628
:102C7000C068C468201D00F077F9E069012810D110
:102C8000A0692B4641193A462046FFF733FF40B171
:102C900000200346014600902A46204601F04CF8E9
:102CA00020B1616A20468847C2E707E0502080F3E0
:102CB0001188BFF34F8FBFF36F8FFEE70127BFE788
:102CC0005400002004ED00E006484168096829B17D
:102CD0004168C968C9684968016370474FF0FF31AE
:102CE000FAE700001800002070B5054600F0B0FEBD
:102CF000064E04463069844203D200F009F80120F0
:102D000000E0002028602046346170BD540000209F
:102D1000F8B5194D1FE0C068C4680668201D00F0B2
:102D200023F9616A20468847E069012813D1A06928
:102D30003044B04206D924616060211D286800F04B
:102D40004BF908E000200346014600903246204639
:102D500000F0F2FF38B1286801680029DBD169680A
:102D6000C5E90010F8BD502080F31188BFF34F8FE4
:102D7000BFF36F8FFEE70000540000200848406852
:102D8000401C4FF0500080F3118804D0BFF34F8FE8
:102D9000BFF36F8FFEE7BFF34F8FBFF36F8FFEE779
:102DA00084000020074C2068016841B1C068002100
:102DB000D0F80000FFF72EFFFFF7C6FEF3E7012172
:102DC0000020F7E7540000202DE9F041044600F010
:102DD00027F994F9455004F1240609E0606A48B1E6
:102DE000304600F0DFFE08B100F064FA6D1E6DB2EF
:102DF000002DF3DC4FF0FF3684F8456000F030F929
:102E000000F00EF994F9445004F1100709E020692C
:102E100048B1384600F0C6FE08B100F04BFA6D1E0E
:102E20006DB2002DF3DC84F84460BDE8F04100F0A1
:102E300017B900002DE9F0410546002700F0B8FA67
:102E4000314E306808B9FFF779FDF06805424BD183
:102E5000C5B3083568070ED005F00700C0F10800BB
:102E60000544680707D0502080F31188BFF34F8FC7
:102E7000BFF36F8FFEE72DB37068854234D82248C8
:102E8000103001460C6801E020460C466168A942FA
:102E900002D221680029F7D131688C4224D007681A
:102EA0002168016060680837411B10290FD960193B
:102EB000420708D0502080F31188BFF34F8FBFF333
:102EC0006F8FFEE710E041606560FFF7EDFD616820
:102ED0007068401A7060B268904200D2B060F068CA
:102EE00001430020C4E9000100F094FE780707D0F8
:102EF000502080F31188BFF34F8FBFF36F8FFEE731
:102F00003846BDE8F08100006C00002010B5031FBA
:102F10004FF080741C601B1F21F001011960191F04
:102F2000024B0B60143940380A6010BD7D2D00083B
:102F300030B50C4A00211368DC6A4FF47A726043A2
:102F4000B0FBF2F55A6A586A9042FCD002D9A0EB65
:102F5000020202E0A4EB0202024411440246A9422A
:102F6000F1D330BD20010020D0E9013201699A601F
:102F7000D0E901235A604A68824201D182684A60DE
:102F8000002202610868401E08600868704700005F
:102F9000034B036003F15C00086080201060704701
:102FA0007C070020044B036003F15C0008604FF4D1
:102FB0008070106070470000D809002000F10801FF
:102FC0004FF0FF32C0E90112C160016100210160D0
:102FD000704700210161704730B50B685A1C02D060
:102FE00000F1080202E0026904E022465468256804
:102FF0009D42FAD953684B6099608A6051600861BC
:103000000168491C016030BD42684A6093688B606A
:1030100093685960916008610168491C01607047BC
:10302000502080F31188BFF34F8FBFF36F8F0A4991
:103030004868401C486001280CD10848006810F01E
:10304000FF0F07D0502080F31188BFF34F8FBFF3DD
:103050006F8FFEE7704700008400002004ED00E061
:103060000849486828B1401E486001D180F31188A2
:103070007047502080F31188BFF34F8FBFF36F8FDD
:10308000FEE700008400002070B5002827D0144D12
:10309000A0F108046168E868014207D1502080F37C
:1030A0001188BFF34F8FBFF36F8FFEE722683AB1ED
:1030B000502080F31188BFF34F8FBFF36F8FFEE76F
:1030C0008143616000F074F9606869680844686071
:1030D0002046FFF7E9FCBDE8704000F09BBD70BDE5
:1030E0006C0000204FF0E020002101618161054962
:1030F0004FF47A720968B1FBF2F1491E4161072170
:10310000016170471400002010B5FDF785F81149E2
:1031100010280ED300F1E02090F8F0030A789042D6
:1031200007D2502080F31188BFF34F8FBFF36F8F0A
:10313000FEE709480068896800F4E060884207D922
:10314000502080F31188BFF34F8FBFF36F8FFEE7DE
:1031500010BD0000840000200CED00E010B5084B0D
:10316000002200BF53F832401CB1521C082AF9D388
:1031700010BD43F8321003EBC201486010BD0000DF
:103180006001002070B515460E460446FFF748FF63
:1031900094F944100020491C01D184F8440094F9AA
:1031A0004510491C01D184F84500FFF759FFA06B79
:1031B00028B92A46314604F1240000F099F8204647
:1031C000BDE87040FFF700BE10B5020014D00F48F4
:1031D000806B38B1502080F31188BFF34F8FBFF35D
:1031E0006F8FFEE700F0E4F800211046FFF780FA49
:1031F00000F010FD002807D105494FF0805008600D
:10320000BFF34F8FBFF36F8F10BD00001800002079
:1032100004ED00E070B50546FFF702FF1E4C05B94E
:103220002568281DFFF7A0FEA86A18B105F118004F
:10323000FFF79AFEE06A401CE0622068854207D1F1
:10324000291D1648FFF7E0FEE068401CE06007E03B
:103250002069401E20612846FFF755FBFFF734FD2B
:10326000FFF7FEFEE069002814D02068854211D1E6
:10327000A06B38B1502080F31188BFF34F8FBFF39C
:103280006F8FFEE706494FF080500860BFF34F8F05
:10329000BFF36F8F70BD0000180000203C060020B7
:1032A00004ED00E002498A6A0260496941607047A2
:1032B00018000020014901204862704718000020D2
:1032C00010B50C4650B1094909681831FFF784FE62
:1032D0002046BDE810400121FFF70ABA502080F3D4
:1032E0001188BFF34F8FBFF36F8FFEE718000020E8
:1032F00070B514460D4668B10A4909681831FFF7E0
:1033000083FE0CB14FF0FF3521462846BDE87040E2
:10331000FFF7EEB9502080F31188BFF34F8FBFF352
:103320006F8FFEE71800002030B587B000240394AB
:1033300005AA04A903A80494FFF72AFEDDE9030106
:103340000094CDE90110002315A11748059A00F05B
:1033500046FB164D002868631FD000F0BDFC012815
:1033600009D0401C19D1502080F31188BFF34F8F32
:10337000BFF36F8FFEE7502080F31188BFF34F8FAC
:10338000BFF36F8F4FF0FF3028630120E8616C615D
:1033900007B0BDE8304000F045B807B030BD0000D0
:1033A00049444C450000000089290008180000200D
:1033B0000248816B491C816370470000180000209F
:1033C000164810B5816B11B10121416210BD002179
:1033D00041628169124A01E0B9B1491E01EB8103E2
:1033E00052F82330002BF7D001EB810302EB83026C
:1033F00002F1080453685B685360A34201D15B6823
:103400005360DA680260816110BD502080F311883A
:10341000BFF34F8FBFF36F8FFEE70000180000204F
:10342000A00100201CB5264908780190FF200870F3
:1034300008788DF800009DF800009DF8002000F04D
:10344000F000904207D0502080F31188BFF34F8FD7
:10345000BFF36F8FFEE79DF800001A4B00F050009D
:1034600018700720986005E09DF8002052008DF844
:103470000020401E9DF800201206F5D49860032815
:1034800007D0502080F31188BFF34F8FBFF36F8FA9
:10349000FEE74FF440709860019808700A48016890
:1034A00041F470010160016841F070410160FFF773
:1034B00019FE00205860FCF779FE00201CBD0000BA
:1034C00000E400E08400002020ED00E038B5049D19
:1034D00018B153B1CAB181B120E0502080F31188F6
:1034E000BFF34F8FBFF36F8FFEE7502080F311883B
:1034F000BFF34F8FBFF36F8FFEE7502080F311882B
:10350000BFF34F8FBFF36F8FFEE739B1502080F3C9
:103510001188BFF34F8FBFF36F8FFEE750241C4617
:10352000012384F846302B460094FFF75DFA2046CD
:1035300038BD000070B50D46040025D0FFF770FDC2
:10354000D4E90F20216802FB001161600021A16312
:103550002168A1600A46D4E90F01401E00FB012149
:10356000E16021464FF0FF3001F8440F487004F14C
:1035700010008DB1FFF722FD04F12400FFF71EFDBE
:10358000FFF76EFD012070BD502080F31188BFF35E
:103590004F8FBFF36F8FFEE721690029F0D000F055
:1035A00001FB0028ECD004494FF080500860BFF3C5
:1035B0004F8FBFF36F8FE3E704ED00E02DE9FF4786
:1035C00082B01D468A464FF00008040003D0BAF1CD
:1035D000000F08D011E0502080F31188BFF34F8F07
:1035E000BFF36F8FFEE7206C38B1502080F3118855
:1035F000BFF34F8FBFF36F8FFEE7022D0AD1E06B51
:10360000012807D0502080F31188BFF34F8FBFF3FC
:103610006F8FFEE700F00EFA3F4F4FF000094FF0BA
:10362000805648B9049838B1502080F31188BFF310
:103630004F8FBFF36F8FFEE7FFF7F2FCA06BE16BDC
:10364000884207D3022D05D00498D0B1B8F1000FFD
:103650001AD01EE02A4651462046FFF71EF9616A3D
:1036600019B104F1240000F09DFA20B13E60BFF3CF
:103670004F8FBFF36F8FFFF7F3FC012006B0BDE85B
:10368000F087FFF7EDFC22E06846FFF70BFE4FF0F6
:103690000108FFF7E5FCFFF78BFEFFF7C1FC94F98B
:1036A0004400401C01D184F8449094F94500401C2A
:1036B00001D184F84590FFF7D3FC04A9684600F0D7
:1036C00027F930B12046FFF77FFB00F0A3FA002076
:1036D000D4E7FFF7A5FCA06BE16B884213D1FFF79D
:1036E000BFFC04F110000499FFF7EAFD2046FFF744
:1036F0006BFB00F08FFA00289ED13E60BFF34F8F26
:10370000BFF36F8F98E7FFF7ABFC2046FFF75CFB3A
:1037100000F080FA90E7000004ED00E02DE9F047AA
:103720001F4690468946040003D0B9F1000F08D027
:1037300011E0502080F31188BFF34F8FBFF36F8FDC
:10374000FEE7206C38B1502080F31188BFF34F8F13
:10375000BFF36F8FFEE7022F0AD1E06B012807D07D
:10376000502080F31188BFF34F8FBFF36F8FFEE7B8
:10377000FFF7CAFC5020EFF3118680F31188BFF3E6
:103780004F8FBFF36F8FA06BE16B884206D3022F80
:1037900004D0002086F31188BDE8F08794F94550E5
:1037A0003A4649462046FFF778F8681C04D06D1C5D
:1037B00084F845500120EDE7606A0028FAD004F152
:1037C000240000F0EFF90028F4D0B8F1000FF1D098
:1037D0000121C8F80010EDE72DE9F747002683B076
:1037E0008A46040003D0BAF1000F08D011E050203F
:1037F00080F31188BFF34F8FBFF36F8FFEE7206C0C
:1038000038B1502080F31188BFF34F8FBFF36F8F13
:10381000FEE700F00FF9DFF8F4804FF000094FF0F9
:10382000805748B9059838B1502080F31188BFF30C
:103830004F8FBFF36F8FFEE7FFF7F2FBA56BC5B1AC
:1038400051462046FFF716F86D1EA563206950B15A
:1038500004F1100000F0A6F928B1C8F80070BFF319
:103860004F8FBFF36F8FFFF7FBFB012006B0BDE862
:10387000F087059808B11EB106E0FFF7F1FB27E0DD
:103880006846FFF70FFD0126FFF7EAFBFFF790FD03
:10389000FFF7C6FB94F94400401C01D184F8449022
:1038A00094F94500401C01D184F84590FFF7D8FBFE
:1038B00005A9684600F02CF8002820460AD0FFF73A
:1038C00083FA00F0A7F92046FFF730F90028B3D0BB
:1038D0000020CBE7FFF72AF990B104F12400059905
:1038E000FFF7EEFC2046FFF76FFA00F093F900288F
:1038F000A2D1C8F80070BFF34F8FBFF36F8F9BE763
:103900002046FFF761FA00F085F995E704ED00E045
:103910002DE9F0410C46050011D0C4B1FFF780FB42
:10392000174B5A696E682068911B471C17D02F6887
:103930009B6A9F4219D0964217D8012410E050206C
:1039400080F31188BFF34F8FBFF36F8FFEE75020D6
:1039500080F31188BFF34F8FBFF36F8FFEE7002412
:10396000FFF77EFB2046BDE8F081884205D9401A6A
:1039700020602846FFF796FCF1E700202060DCE796
:10398000180000202DE9FF5F8346DDE90E87994688
:1039900016468A469000FFF74DFA05001CD05C20C1
:1039A000FFF748FA040014D00020256384F859007A
:1039B000CDE90240CDE900874B4632465146584694
:1039C000FFF723F82046FEF7C1FE012004B0BDE852
:1039D000F09F2846FFF758FB4FF0FF30F6E7F0B5B1
:1039E00085B0DDE90B640A9DA6B1DCB15C270097C8
:1039F0002663022684F85960002604AFCDE902460A
:103A0000CDE90057FFF701F82046FEF79FFE049826
:103A100005B0F0BD502080F31188BFF34F8FBFF386
:103A20006F8FFEE7502080F31188BFF34F8FBFF3F5
:103A30006F8FFEE70548C16919B1806B18B100208E
:103A400070470120704702207047000018000020D6
:103A50000148406970470000180000202DE9F0413E
:103A60002E4C0027A06B40B1206A401C2062606A87
:103A700000B101273846BDE8F0816669761C6661B1
:103A800013D16068006838B1502080F31188BFF30B
:103A90004F8FBFF36F8FFEE76068A1686160A06021
:103AA000A06A401CA062FFF70FF9206BDFF870805E
:103AB000864209D36068006880B16068C068C568E4
:103AC000686886420DD220632068C06A00EB8001DE
:103AD00058F821000128CAD90127C8E74FF0FF3064
:103AE000F1E7281DFFF740FAA86A18B105F11800A0
:103AF000FFF73AFAE86AA169884200D9A06100EBB1
:103B0000800108EB8100291DFFF77EFAE86A216831
:103B1000C96A8842CED30127CCE7000018000020F4
:103B2000A001002070B504004FF0000133D01B4D00
:103B30002868844207D0502080F31188BFF34F8F4C
:103B4000BFF36F8FFEE7206D38B1401E2065E36C38
:103B5000E26A9A421FD040B11DE0502080F31188E4
:103B6000BFF34F8FBFF36F8FFEE7201DFFF7FCF908
:103B7000E06CE062C0F13800A061E06AA9698842A7
:103B800000D9A861064900EB800001EB8000211DEF
:103B9000FFF73AFA0121084670BD00001800002026
:103BA000A001002070B5C068C46854B104F11800C9
:103BB0000646FFF7D9F9144DA86B50B131461348AA
:103BC00015E0502080F31188BFF34F8FBFF36F8F44
:103BD000FEE7201DFFF7C8F9E06AA969884200D90D
:103BE000A8610B4900EB800001EB8000211DFFF76D
:103BF0000BFAE06A2968C96A884202D90120686222
:103C000070BD002070BD00001800002028060020B4
:103C1000A00100202DE9F0472C4D00242746A86B79
:103C200038B1FFF7FDF9A86B401EA863A86B40B13F
:103C300046E0502080F31188BFF34F8FBFF36F8FA2
:103C4000FEE72969224E0120D1B3A6F5916980468D
:103C50003068E0B1F068C46804F11800FFF784F937
:103C6000201DFFF781F9E06AA969884200D9A8619F
:103C700000EB800109EB8100211DFFF7C5F9E06A27
:103C80002968C96A8842E3D3C5F82480E0E70CB10B
:103C9000FFF71AF82C6A4CB14FEA0806FFF7DEFE70
:103CA00000B16E62641EF9D100202862686A38B1E2
:103CB0000849012738070860BFF34F8FBFF36F8FA4
:103CC000FFF7CEF93846BDE8F08700001800002065
:103CD0002806002004ED00E010B586B0FEF79EFD3A
:103CE000114CA068B8B100200390049005AA04A963
:103CF00003A8FFF757F9DDE9032102208DE807004B
:103D000000230AA10B48059AFFF769FEE06010B195
:103D100006B0012010BD502080F31188BFF34F8FF3
:103D2000BFF36F8FFEE7000054000020546D722037
:103D300053766300A52D00082DE9FF411E4613466A
:103D400002000A9D4FF0000016D0144CA768002F07
:103D50000FD0CDE900130292062917DAFFF76AFEA9
:103D600002284FF000030FD000226946A068FFF739
:103D700025FC04B0BDE8F081502080F31188BFF32A
:103D80004F8FBFF36F8FFEE72A46EEE700233246E0
:103D900069463846FFF7C2FCEBE7000054000020FC
:103DA000DC450008000000000000000000000000EA
:103DB00000000000000200001800000000000000E9
:103DC00000000000000000000000000001020304E9
:103DD00006070809000000000102030400000000BB
:103DE00000000000000000000000000000FE0202D1
:103DF00002020202003F20202020202000000000BC
:103E000000000000000000000000000000FE0202B0
:103E100002020202003F20202020202000FE020299
:103E200002020202003F20202020202000FE020289
:103E300002020202003F20202020202000FE020279
:103E400002020202003F20202020202000FE020269
:103E500002020202003F20202020202000FE020259
:103E600002020202003F202020202020000000004B
:103E70000000000000000000000000000000000042
:103E80000000000000000000000000000000000032
:103E900000000000000000000000000000FE020220
:103EA00002020202003F20202020202000FE020209
:103EB00002020202003F20202020202000FE0202F9
:103EC00002020202003F20202020202000FE0202E9
:103ED00002020202003F20202020202000FE0202D9
:103EE00002020202003F20202020202000FE0202C9
:103EF00002020202003F20202020202000FE0202B9
:103F000002020202003F20202020202000FE0202A8
:103F100002020202003F20202020202000FE020298
:103F200002020202003F20202020202000FE020288
:103F300002020202003F20202020202000FE020278
:103F400002020202003F20202020202000FE020268
:103F500002020202003F20202020202000FE020258
:103F600002020202003F20202020202000FE020248
:103F700002020202003F20202020202000FE020238
:103F800002020202003F20202020202000FE020228
:103F900002020202003F202020202020000000001A
:103FA0000000000000000000000000000000000011
:103FB0000000000000000000000000000000000001
:103FC00000000000000000000000000000000000F1
:103FD00000000000000000000000000000000000E1
:103FE000000000000000000000000000000000F8D9
:103FF00000000000000000330000000000100C0270
:10400000100C020000000000000000000040C0781A
:1040100040C0780000043F04043F0400007088881A
:10402000FC08300000182020FF211E00F008F0805E
:104030006018000000310C031E211E0000F00888EB
:10404000700000001E21232C1927211000120E00E1
:10405000000000000000000000000000000000E080
:104060001804020000000007182040000002041895
:10407000E00000000040201807000000404080F0F1
:10408000804040000202010F010202000000000017
:10409000E0000000000101010F010101000000002B
:1040A0000000000000907000000000000000000010
:1040B00000000000000101010101010000000000FA
:1040C0000000000000303000000000000000000090
:1040D000C0380400006018070000000000E010086D
:1040E0000810E000000F102020100F00000010103A
:1040F000F8000000000020203F2020000070080889
:104100000808F00000302824222130000030080880
:10411000088870000018202121221C000000804027
:1041200030F8000000060524243F242400F8888885
:10413000880808000019202020110E0000E01088D7
:1041400088900000000F112020201F000018080890
:10415000886818000000003E010000000070880818
:1041600008887000001C222121221C0000F0080891
:104170000810E0000001122222110F00000000C010
:10418000C00000000000003030000000000000808F
:1041900000000000000000E000000000000080407F
:1041A00020100800000102040810200000404040D8
:1041B00040404000000202020202020000081020FB
:1041C0004080000000201008040201000070480830
:1041D000088870000000003037000000C030C82898
:1041E000E810E000071827282F2817000000C03823
:1041F000E0000000203C23020227382008F88888CD
:1042000088700000203F202020110E00C0300808D8
:1042100008083800071820202010080008F80808AF
:104220000810E000203F202020100F0008F88888A8
:10423000E8081000203F20202320180008F8888874
:10424000E8081000203F200003000000C0300808EC
:104250000838000007182020221E020008F8080075
:104260000008F808203F210101213F20000808F83C
:10427000080800000020203F20200000000008085F
:10428000F8080800C08080807F00000008F888C01F
:1042900028180800203F20012638200008F80800D0
:1042A00000000000203F20202020300008F8F80007
:1042B000F8F80800203F013E013F200008F830C018
:1042C0000008F808203F200007183F00E010080809
:1042D0000810E0000F10202020100F0008F8080838
:1042E0000808F000203F210101010000E01008084B
:1042F0000810E0000F10282830504F0008F8888878
:1043000088887000203F2000030C3020007088084F
:10431000080838000038202121221C00180808F85D
:10432000080818000000203F2000000008F80800DE
:104330000008F808001F202020201F0008788800AF
:1043400000C83808000007380E01000008F800F81F
:1043500000F8080000033E013E03000008186880D2
:104360008068180820302C03032C30200838C8003F
:10437000C83808000000203F20000000100808088E
:10438000C83808002038262120201800000000FE30
:10439000020202000000007F40404000000438C0DC
:1043A00000000000000000010638C0000002020208
:1043B000FE000000004040407F00000000000402BA
:1043C00002040000000000000000000000000000E7
:1043D00000000000808080808080808000020204D5
:1043E00000000000000000000000000000008080CD
:1043F0008000000000192424123F200010F00080EB
:1044000080000000003F112020110E0000000080FD
:1044100080800000000E112020201100000080800C
:104420008090F000001F202020103F20000080809E
:1044300080800000001F242424241700008080E0D6
:10444000909020000020203F20200000000080806D
:1044500080808000006B94949493600010F0008042
:1044600080800000203F210000203F20008098989D
:10447000000000000020203F2020000000000080FD
:104480009898000000C08080807F000010F000003D
:1044900080808000203F240629302000001010F882
:1044A000000000000020203F20200000808080804D
:1044B00080808000203F20003F20003F80800080DF
:1044C00080800000203F210000203F2000008080ED
:1044D00080800000001F202020201F00808000809E
:1044E0008000000080FF912020110E00000000805D
:1044F00080008000000E11202091FF8080808000CD
:104500008080800020203F2120000100000080806A
:10451000808080000033242424241900008080E05F
:10452000808000000000001F20201000808000001C
:1045300000808000001F202020103F20808080000D
:104540008080800000030C300C030000808000801D
:1045500080008080010E300C0738060100808080CA
:10456000008080000020310E2E31200080808000ED
:10457000008080800081867818060100008080809D
:10458000808080000021302C2221300000000000BB
:1045900000FC020200000000013E4040000000005C
:1045A000FF00000000000000FF0000000202FC000D
:1045B0000000000040403E01000000000002010237
:1045C00002040200000000000000000000000000E3
:1045D000000000000000000000000000646566614B
:1045E000756C745461736B0008460008000000206D
:1045F0009C00000028010008A44600089C00002040
:10460000FC1F000044010008000000000000000042
:104610000100000010000000000000000024F40071
:10462000000000000000000000000000000000008A
:10463000000000000000000000000000000000007A
:10464000000000000000000000000000000000006A
:10465000000000000000000000000000000000005A
:10466000000000000000000000000000000000004A
:10467000000000000000000000000000000000003A
:10468000000000000000000000000000000000002A
:10469000AAAAAAAA0000000002000000CC00002084
:0446A0009C0000205A
:04000005080000ED02
:00000001FF
